:06000000000007EF06F00E
:0B060000004D61737465723A20000029
:10060C00FFFFA00E4E6E860E4F6E010E506E000E4A
:10061C00516E50EC05F0000E956E000E8C6E1CECBD
:10062C0005F012EC06F0010E446E010EE1EC04F044
:10063C00010E496E4950D8A4060E4A6E14EC04F013
:10064C00040E576ECF0E566EA50EFFFFE82EFDD78B
:10065C00562EFBD7572EF9D700D0FFFFB5EC05F07F
:10066C00000E426E880E416ECEEC05F0000E426E0E
:10067C00780E416ECEEC05F0F9EC05F0080E576ED5
:10068C009E0E566E4C0EFFFFE82EFDD7562EFBD756
:10069C00572EF9D7B5EC05F0000E426E880E416E60
:1006AC00CEEC05F0000E426E790E416ECEEC05F0EC
:1006BC00F9EC05F0080E576E9E0E566E4C0EFFFFB1
:1006CC00E82EFDD7562EFBD7572EF9D7B5EC05F0F3
:1006DC00000E426E880E416ECEEC05F0000E426E9E
:1006EC007A0E416ECEEC05F0F9EC05F0080E576E63
:1006FC009E0E566E4C0EFFFFE82EFDD7562EFBD7E6
:10070C00572EF9D7B5EC05F0000E426E890E416EEE
:10071C00CEEC05F0000E81EC05F0216E000E81ECA4
:10072C0005F0226E010E81EC05F0236E000E246E96
:10073C00F9EC05F0210E496E4A6A14EC04F0080E2F
:10074C00576E9E0E566E4C0EFFFFE82EFDD7562EA2
:10075C00FBD7572EF9D733EF03F001EF00F0FFFF73
:10076C00000E496E000E4A6E000E4B6E000E4C6E63
:10077C004550461047104810D8B4C7EF03F0CAEFE5
:10078C0003F0FFFF09EF04F0FFFF010E4D6ED6EFF3
:10079C0003F0FFFFD89045364636473648364D2A8B
:1007AC00FFFF48AEDCEF03F0DFEF03F0FFFFCFEF0E
:1007BC0003F0FFFFFFFFD89049364A364B364C36D4
:1007CC004550415C46504258475043584850445855
:1007DC00D8A0F3EF03F0F6EF03F0FFFF00EF04F007
:1007EC00FFFF4550415E4650425A4750435A4850CD
:1007FC00445A4980FFFFD89048324732463245323E
:10080C004D2EE0EF03F0FFFF49C041F04AC042F02B
:10081C004BC043F04CC044F01200FFFFFFFF000E32
:10082C004E6E000E4D6E37EF04F0FFFF4D50492415
:10083C004B6E4E504A204C6E4BC0F6FF4CC0F7FF2F
:10084C00F86A050EF76404D00800FFFFF55005D0D8
:10085C00F6CFE9FFF7CFEAFFEF505BEC04F04D4A1F
:10086C004E2AFFFF4D5049244B6E4E504A204C6E81
:10087C004BC0F6FF4CC0F7FFF86A050EF76404D0C6
:10088C000800FFFFF55005D0F6CFE9FFF7CFEAFFE0
:10089C00EF500009D8A455EF04F058EF04F0FFFF17
:1008AC001BEF04F0FFFF1200FFFFFFFF486E4850E4
:1008BC000F0B426E4850F00B436E8C8443380F0B79
:1008CC00A1EC04F08C86820E456E330E446EFFFF55
:1008DC0000004406D8A0450645BE7DEF04F0455007
:1008EC0009E14404D8A07DEF04F080EF04F0FFFF91
:1008FC006DEF04F0FFFF8C964250A1EC04F08C8657
:10090C00820E476E330E466EFFFF00004606D8A0DF
:10091C00470647BE9AEF04F0475009E14604D8A0B9
:10092C009AEF04F09DEF04F0FFFF8AEF04F0FFFF55
:10093C008C961200FFFFFFFF416E41A0A8EF04F060
:10094C00ABEF04F0FFFFAFEF04F0FFFF8C88B1EFCB
:10095C0004F0FFFF8C98FFFF41A2B7EF04F0BAEF51
:10096C0004F0FFFFBEEF04F0FFFF8C8AC0EF04F031
:10097C00FFFF8C9AFFFF41A4C6EF04F0C9EF04F00F
:10098C00FFFFCDEF04F0FFFF8C8CCFEF04F0FFFFE7
:10099C008C9CFFFF41A6D5EF04F0D8EF04F0FFFFCD
:1009AC00DCEF04F0FFFF8C8EDEEF04F0FFFF8C9E7B
:1009BC00FFFF1200FFFFFFFF456E4504D8A4E9EFCF
:1009CC0004F0ECEF04F0FFFFFEEF04F0FFFF4450E7
:1009DC007F0F486E48380F0B466E48500F0B476E12
:1009EC004650E6EC05F04750E6EC05F019EF05F043
:1009FC00FFFF020E4518D8A406EF05F009EF05F02D
:100A0C00FFFF19EF05F0FFFF4450BF0F486E483849
:100A1C000F0B466E48500F0B476E4650E6EC05F038
:100A2C004750E6EC05F0FFFF1200FFFFFFFF000E42
:100A3C00A1EC04F0030EE6EC05F0050E446EDF0E9F
:100A4C00FFFFE82EFDD7442EFBD7030EE6EC05F096
:100A5C000B0E446EB80EFFFFE82EFDD7442EFBD7CD
:100A6C00030EE6EC05F0020EE6EC05F0020EE6ECE9
:100A7C0005F0080EE6EC05F0000EE6EC05F00C0EA9
:100A8C00E6EC05F0000EE6EC05F0060EE6EC05F0E3
:100A9C001200FFFFFFFF280EC66E000EC56E000E83
:100AAC00416E090E426E3D0E436E000E446E4EC0FA
:100ABC0052F04FC053F050C054F051C055F0020EDC
:100ACC00FFFFD8905236533654365536E82E66EF23
:100ADC0005F052C045F053C046F054C047F055C025
:100AEC0048F0B5EC03F04104C86E000EC76E948656
:100AFC0094881200FFFFFFFF426E9BEC05F0C58649
:100B0C009BEC05F0C9CF43F04250D8A490EF05F010
:100B1C0094EF05F0FFFFC58A96EF05F0FFFFC59A2D
:100B2C00FFFFC58843501200FFFFFFFFFFFFC7B454
:100B3C00A2EF05F0A5EF05F0FFFF9CEF05F0FFFF1E
:100B4C00C5CF41F01F0E4116D8A4AFEF05F0B2EFA0
:100B5C0005F0FFFF9CEF05F0FFFF1200FFFFFFFF0A
:100B6C00C580FFFFC5B0BDEF05F0C0EF05F0FFFF7E
:100B7C00B7EF05F0FFFFFFFF9EA6C7EF05F0CAEF2A
:100B8C0005F0FFFFC1EF05F0FFFF9E961200FFFF7F
:100B9C00FFFF41C0C9FFFFFFC7B4D7EF05F0DAEF85
:100BAC0005F0FFFFD1EF05F0FFFFC7B0E0EF05F058
:100BBC00E3EF05F0FFFFD1EF05F0FFFF1200FFFFA1
:100BCC00FFFF436E8C944350A1EC04F08C86040E12
:100BDC00426EE50EFFFFE82EFDD7422EFBD700D06C
:100BEC008C961200FFFFFFFFC584FFFFC5B401EF19
:100BFC0006F004EF06F0FFFFFBEF05F0FFFF12001D
:100C0C00FFFF00EE01F0400EEE6AE806FDE1000E7B
:100C1C00F86E000106EF03F0FFFF000EE6EC05F0A6
:0C0C2C00010EE6EC05F01200FFFFFFFFD8
:020000040030CA
:020002000F0EDF
:00000001FF
