:06000000000021EF06F0F4
:1006000000534C4156453A200000FFFF026E93987C
:10061000050EFFFFE82EFDD702AE11EF03F014EF39
:1006200003F0FFFF18EF03F0FFFF93821AEF03F0D0
:10063000FFFF9392FFFFD8900236020EFFFFE82ED5
:10064000FDD700D09388010E036EFFFF81B82BEF1A
:1006500003F02EEF03F0FFFF25EF03F0FFFF020E84
:10066000FFFFE82EFDD700D002AE39EF03F03CEFDC
:1006700003F0FFFF40EF03F0FFFF938242EF03F030
:10068000FFFF9392FFFFD8900236FFFF81A84BEF48
:1006900003F04EEF03F0FFFF45EF03F0FFFF020E04
:1006A000FFFFE82EFDD700D0032A070E03645BEF9F
:1006B00003F05EEF03F0FFFF25EF03F0FFFF9382EF
:1006C000FFFF81A866EF03F069EF03F0FFFF60EF23
:1006D00003F0FFFF020EFFFFE82EFDD700D0000E53
:1006E00081B2010E016EFFFF81B879EF03F07CEF5C
:1006F00003F0FFFF73EF03F0FFFF020EFFFFE82E92
:10070000FDD700D00150D8B488EF03F08BEF03F091
:10071000FFFF8FEF03F0FFFF938891EF03F0FFFFE0
:100720009398FFFF01501200FFFFFFFF000E956E30
:10073000000E8C6E70EC05F0010E046E010E35ECAF
:1007400005F010EC06F0010E096EA6EC05F028ECA1
:1007500006F0FFFFE7EC05F0000E03EC04F00E6E70
:10076000880E0E18D8A4B7EF03F0BAEF03F0FFFF1E
:10077000FCEF03F0FFFF000E03EC04F00E6E020E20
:100780000E18D8A4C6EF03F0C9EF03F0FFFFFCEF8B
:1007900003F0FFFF61EC04F0000E03EC04F00E6EBA
:1007A000890E0E18D8A4D7EF03F0DAEF03F0FFFF9D
:1007B000FCEF03F0FFFF410E05EC03F00D6E0D5052
:1007C000D8A4E5EF03F0E8EF03F0FFFFFCEF03F040
:1007D000FFFF520E05EC03F00D6E0D50D8A4F3EFA1
:1007E00003F0F6EF03F0FFFFFCEF03F0FFFF4F0E07
:1007F00005EC03F0FCEF03F0FFFFCFEC05F0A9EFF1
:1008000003F001EF00F0FFFF016E000E026E000E1C
:10081000036EFFFFD8900236FFFF81A812EF04F0AD
:1008200015EF04F0FFFF0CEF04F0FFFF020EFFFFD7
:10083000E82EFDD700D081A220EF04F023EF04F0D2
:10084000FFFF25EF04F0FFFF0280FFFF81B82BEFD1
:1008500004F02EEF04F0FFFF25EF04F0FFFF032A62
:10086000070E036436EF04F039EF04F0FFFF09EFE1
:1008700004F0FFFF93980150D8B441EF04F044EF27
:1008800004F0FFFF48EF04F0FFFF93824AEF04F00B
:10089000FFFF9392FFFF19EC06F09388FFFF81B8EA
:1008A00054EF04F057EF04F0FFFF4EEF04F0FFFFAA
:1008B000020EFFFFE82EFDD700D0938202501200F7
:1008C000FFFFFFFFFFFF81A868EF04F06BEF04F06C
:1008D000FFFF62EF04F0FFFF81A271EF04F074EFFD
:1008E00004F0FFFF62EF04F0FFFFFFFF81A87BEF42
:1008F00004F07EEF04F0FFFF87EF04F0FFFF81B20A
:1009000084EF04F087EF04F0FFFF75EF04F0FFFFC2
:1009100081A88DEF04F090EF04F0FFFF87EF04F063
:10092000FFFF81B296EF04F099EF04F0FFFF87EF2D
:1009300004F0FFFFFFFF81A8A0EF04F0A3EF04F095
:10094000FFFFACEF04F0FFFF81A2A9EF04F0ACEFD2
:1009500004F0FFFF9AEF04F0FFFF1200FFFFFFFF1C
:10096000086E08500F0B026E0850F00B036E8C845B
:1009700003380F0BF5EC04F08C86820E056E330EF7
:10098000046EFFFF00000406D8A0050605BED1EFE7
:1009900004F0055009E10404D8A0D1EF04F0D4EF2D
:1009A00004F0FFFFC1EF04F0FFFF8C960250F5EC5E
:1009B00004F08C86820E076E330E066EFFFF000079
:1009C0000606D8A0070607BEEEEF04F0075009E1BF
:1009D0000604D8A0EEEF04F0F1EF04F0FFFFDEEF25
:1009E00004F0FFFF8C961200FFFFFFFF016E01A0D5
:1009F000FCEF04F0FFEF04F0FFFF03EF05F0FFFF53
:100A00008C8805EF05F0FFFF8C98FFFF01A20BEF2C
:100A100005F00EEF05F0FFFF12EF05F0FFFF8C8AE7
:100A200014EF05F0FFFF8C9AFFFF01A41AEF05F009
:100A30001DEF05F0FFFF21EF05F0FFFF8C8C23EF8A
:100A400005F0FFFF8C9CFFFF01A629EF05F02CEFBE
:100A500005F0FFFF30EF05F0FFFF8C8E32EF05F061
:100A6000FFFF8C9EFFFF1200FFFFFFFF056E0504D6
:100A7000D8A43DEF05F040EF05F0FFFF52EF05F081
:100A8000FFFF04507F0F086E08380F0B066E0850EA
:100A90000F0B076E0650FDEC05F00750FDEC05F05E
:100AA0006DEF05F0FFFF020E0518D8A45AEF05F010
:100AB0005DEF05F0FFFF6DEF05F0FFFF0450BF0F86
:100AC000086E08380F0B066E08500F0B076E0650A5
:100AD000FDEC05F00750FDEC05F0FFFF1200FFFFF5
:100AE000FFFF000EF5EC04F0030EFDEC05F00A0E1E
:100AF000046EBE0EFFFFE82EFDD7042EFBD700D0FC
:100B0000030EFDEC05F0160E046E700EFFFFE82ECE
:100B1000FDD7042EFBD700D0030EFDEC05F0020E2E
:100B2000FDEC05F0020EFDEC05F0080EFDEC05F005
:100B3000000EFDEC05F00C0EFDEC05F0000EFDECDA
:100B400005F0060EFDEC05F01200FFFFFFFF000EA2
:100B50000C6E000E0B6EBAEF05F0FFFF09500B2470
:100B60000A6E0AC0F6FF0800FFFFF550AFEC04F074
:100B70000B4A0C2AFFFF09500B240A6E0AC0F6FF2D
:100B80000800FFFFF5500009D8A4C9EF05F0CCEF2D
:100B900005F0FFFFADEF05F0FFFF1200FFFFFFFFC5
:100BA000FFFF81A2D6EF05F0D9EF05F0FFFFD0EFF0
:100BB00005F0FFFF81A8DFEF05F0E2EF05F0FFFF92
:100BC000D0EF05F0FFFF938293881200FFFFFFFF35
:100BD000FFFF81A8EEEF05F0F1EF05F0FFFFFAEF60
:100BE00005F0FFFF81B2F7EF05F0FAEF05F0FFFF28
:100BF000E8EF05F0FFFF1200FFFFFFFF036E8C948C
:100C00000350F5EC04F08C86080E026ECB0EFFFF4D
:100C1000E82EFDD7022EFBD700D08C961200FFFFE6
:100C2000FFFF000EFDEC05F0010EFDEC05F01200DB
:100C3000FFFFFFFF020EFFFFE82EFDD700D01200DE
:100C4000FFFF000EF86E060EF76E000195EF03F041
:100C5000FFFF938893828A928A981200FFFFFFFF1A
:020000040030CA
:020002000F0EDF
:00000001FF
