:06000000000033EF00F0E8
:10001800FFFF1B80D8CF09F0E8CF0AF0E0CF0BF044
:10002800F29EF29C9EA61BEF00F01EEF00F0FFFF71
:1000380027EF00F0FFFF610ECFEC04F01A6E1A50A4
:100048004AEC03F09E96FFFFF28CF28E0BC0E0FFA5
:100058000AC0E8FF09C0D8FF1B901000FFFF09EF96
:0200680005F0A1
:070600000052583A200000EF
:10060800FFFF136E13500F0B0D6E1350F00B0E6E91
:100618008C840E380F0B90EC03F08C86820E106ED3
:10062800330E0F6EFFFF00000F06D8A0100610BE95
:1006380026EF03F0105009E10F04D8A026EF03F0CD
:1006480029EF03F0FFFF16EF03F0FFFF8C960D5024
:1006580090EC03F08C86820E126E330E116EFFFF43
:1006680000001106D8A0120612BE43EF03F0125084
:1006780009E11104D8A043EF03F046EF03F0FFFFB0
:1006880033EF03F0FFFF8C961200FFFFFFFF046EAD
:1006980004500F0B026E0450F00B036E8C84033869
:1006A8000F0BD0EC03F08C86820E066E330E056EAF
:1006B800FFFF00000506D8A0060606BE6CEF03F093
:1006C800065009E10504D8A06CEF03F06FEF03F0C2
:1006D800FFFF5CEF03F0FFFF8C960250D0EC03F0B5
:1006E8008C86820E086E330E076EFFFF0000070629
:1006F800D8A0080608BE89EF03F0085009E10704EE
:10070800D8A089EF03F08CEF03F0FFFF79EF03F037
:10071800FFFF8C961200FFFFFFFF0C6E0CA097EFF7
:1007280003F09AEF03F0FFFF9EEF03F0FFFF8C88C2
:10073800A0EF03F0FFFF8C98FFFF0CA2A6EF03F0D9
:10074800A9EF03F0FFFFADEF03F0FFFF8C8AAFEFD7
:1007580003F0FFFF8C9AFFFF0CA4B5EF03F0B8EF8E
:1007680003F0FFFFBCEF03F0FFFF8C8CBEEF03F03C
:10077800FFFF8C9CFFFF0CA6C4EF03F0C7EF03F04C
:10078800FFFFCBEF03F0FFFF8C8ECDEF03F0FFFFF1
:100798008C9EFFFF1200FFFFFFFF016E01A0D7EF45
:1007A80003F0DAEF03F0FFFFDEEF03F0FFFF8C88C2
:1007B800E0EF03F0FFFF8C98FFFF01A2E6EF03F0E4
:1007C800E9EF03F0FFFFEDEF03F0FFFF8C8AEFEF97
:1007D80003F0FFFF8C9AFFFF01A4F5EF03F0F8EF99
:1007E80003F0FFFFFCEF03F0FFFF8C8CFEEF03F03C
:1007F800FFFF8C9CFFFF01A604EF04F007EF04F055
:10080800FFFF0BEF04F0FFFF8C8E0DEF04F0FFFFEE
:100818008C9EFFFF1200FFFFFFFF106E1004D8A48C
:1008280018EF04F01BEF04F0FFFF2DEF04F0FFFFBB
:100838000F507F0F136E13380F0B116E13500F0BE1
:10084800126E1150E6EC04F01250E6EC04F048EF9A
:1008580004F0FFFF020E1018D8A435EF04F038EFAB
:1008680004F0FFFF48EF04F0FFFF0F50BF0F136EB7
:1008780013380F0B116E13500F0B126E1150E6EC5C
:1008880004F01250E6EC04F0FFFF1200FFFFFFFF38
:10089800000E90EC03F0030EE6EC04F00A0E0F6E67
:1008A800BE0EFFFFE82EFDD70F2EFBD700D0030E9C
:1008B800E6EC04F0160E0F6E700EFFFFE82EFDD763
:1008C8000F2EFBD700D0030EE6EC04F0020EE6EC88
:1008D80004F0020EE6EC04F0080EE6EC04F0000E5C
:1008E800E6EC04F00C0EE6EC04F0000EE6EC04F086
:1008F800060EE6EC04F01200FFFFFFFF000E176E75
:10090800000E166E95EF04F0FFFF14501624156EB6
:1009180015C0F6FF0800FFFFF55004EC03F0164A77
:10092800172AFFFF14501624156E15C0F6FF08008D
:10093800FFFFF5500009D8A4A4EF04F0A7EF04F0D6
:10094800FFFF88EF04F0FFFF1200FFFFFFFF000E1C
:10095800956E000E8C6E4BEC04F013EC05F0010E56
:100968000F6E010E10EC04F0010E146E81EC04F011
:10097800080E196E9E0E186E4C0EFFFFE82EFDD75E
:10098800182EFBD7192EF9D7F9EC04F0FFFFCAEFA0
:1009980004F033EF00F0FFFF016EC7A0D6EF04F0BC
:1009A800D9EF04F0FFFFE3EF04F0FFFFC9CF02F037
:1009B80001C0C9FF9E96C69CC7909E960250FFFF35
:1009C8001200FFFFFFFF0E6E8C940E5090EC03F0A8
:1009D8008C86080E0D6ECB0EFFFFE82EFDD70D2E70
:1009E800FBD700D08C961200FFFFFFFF240EC66EC7
:1009F800000EC76E0A0EC16E928A949A94889486E5
:100A08009D86F28CF28E1200FFFF1A6A1B901B92D1
:100A1800000EF86E060EF76E0001AAEF04F0FFFF55
:100A2800000EE6EC04F0010EE6EC04F01200FFFF05
:020A3800FFFFBE
:020000040030CA
:020002000F0EDF
:00000001FF
