:06000000000094EF04F083
:070600000054583A200000ED
:10060800FFFF086E08500F0B026E0850F00B036EC8
:100618008C8403380F0B4AEC03F08C86820E056E2F
:10062800330E046EFFFF00000406D8A0050605BEC1
:1006380026EF03F0055009E10404D8A026EF03F0E3
:1006480029EF03F0FFFF16EF03F0FFFF8C9602502F
:100658004AEC03F08C86820E076E330E066EFFFF9F
:1006680000000606D8A0070607BE43EF03F00750B0
:1006780009E10604D8A043EF03F046EF03F0FFFFBB
:1006880033EF03F0FFFF8C961200FFFFFFFF016EB0
:1006980001A051EF03F054EF03F0FFFF58EF03F010
:1006A800FFFF8C885AEF03F0FFFF8C98FFFF01A231
:1006B80060EF03F063EF03F0FFFF67EF03F0FFFF66
:1006C8008C8A69EF03F0FFFF8C9AFFFF01A46FEF9C
:1006D80003F072EF03F0FFFF76EF03F0FFFF8C8C5F
:1006E80078EF03F0FFFF8C9CFFFF01A67EEF03F07D
:1006F80081EF03F0FFFF85EF03F0FFFF8C8E87EF9C
:1007080003F0FFFF8C9EFFFF1200FFFFFFFF056E47
:100718000504D8A492EF03F095EF03F0FFFFA7EFCD
:1007280003F0FFFF04507F0F086E08380F0B066EAA
:1007380008500F0B076E06505AEC04F007505AEC9D
:1007480004F0C2EF03F0FFFF020E0518D8A4AFEFC4
:1007580003F0B2EF03F0FFFFC2EF03F0FFFF045016
:10076800BF0F086E08380F0B066E08500F0B076E88
:1007780006505AEC04F007505AEC04F0FFFF120040
:10078800FFFFFFFF000E956E000E8C6EFBEC03F072
:100798008BEC04F0010E046E010E8AEC03F0010EDE
:1007A800096E31EC04F0080E0E6E9E0E0D6E4C0EA6
:1007B800FFFFE82EFDD70D2EFBD70E2EF9D77EECC6
:1007C80004F0FFFF680E6DEC04F004EC03F0080E73
:1007D8000E6E9E0E0D6E4C0EFFFFE82EFDD70D2EF1
:1007E800FBD70E2EF9D7E5EF03F001EF00F0FFFF7E
:1007F800000E4AEC03F0030E5AEC04F00A0E046EE5
:10080800BE0EFFFFE82EFDD7042EFBD700D0030E47
:100818005AEC04F0160E046E700EFFFFE82EFDD79A
:10082800042EFBD700D0030E5AEC04F0020E5AEC4B
:1008380004F0020E5AEC04F0080E5AEC04F0000E14
:100848005AEC04F00C0E5AEC04F0000E5AEC04F0CA
:10085800060E5AEC04F01200FFFFFFFF000E0C6EAC
:10086800000E0B6E45EF04F0FFFF09500B240A6ED3
:100878000AC0F6FF0800FFFFF55004EC03F00B4A2E
:100888000C2AFFFF09500B240A6E0AC0F6FF080065
:10089800FFFFF5500009D8A454EF04F057EF04F017
:1008A800FFFF38EF04F0FFFF1200FFFFFFFF036EAA
:1008B8008C9403504AEC03F08C86080E026ECB0E23
:1008C800FFFFE82EFDD7022EFBD700D08C96120032
:1008D800FFFFFFFF016E01C0C9FFFFFFC7A077EF51
:1008E80004F07AEF04F0FFFF71EF04F0FFFFC95046
:1008F8001200FFFFFFFF200EC66E000EC76E0A0E25
:10090800C16E929A949A948894961200FFFFFFFF02
:10091800000E5AEC04F0010E5AEC04F01200FFFF2E
:100928000F6A000EF86E060EF76E0001C5EF03F0B1
:02093800FFFFBF
:020000040030CA
:020002000F0EDF
:00000001FF
