:0600000000008DEF05F089
:0B060000004D41535445523A200000C9
:10060C00FFFF000E956E000E8C6E13EC05F0010EC4
:10061C00046E010ED8EC04F084EC05F0010E096EAA
:10062C000950D8A4060E0A6ECBEC03F09CEC05F036
:10063C00FFFF5CEC05F0880E98EC04F00F6E0F5089
:10064C00116E126A11501210D8A42FEF03F032EF72
:10065C0003F0FFFF65EF03F0FFFF020E98EC04F0D0
:10066C000F6E0F50116E126A11501210D8A441EF78
:10067C0003F044EF03F0FFFF65EF03F0FFFF6BECBB
:10068C0005F0890E98EC04F00F6E0F50116E126A83
:10069C0011501210D8A455EF03F058EF03F0FFFFE0
:1006AC0065EF03F0FFFF000E7EEC03F0136E000EFF
:1006BC007EEC03F0146E010E7EEC03F0156EFFFF62
:1006CC0078EC05F0130E096E0A6ACBEC03F0100EF1
:1006DC00106E3B0E0F6E990EFFFFE82EFDD70F2EFE
:1006EC00FBD7102EF9D700D01EEF03F001EF00F06E
:1006FC00FFFF016E000E026E95EC05F0938293885D
:10070C00FFFF81A88CEF03F08FEF03F0FFFF86EF64
:10071C0003F0FFFF000E036EFFFFD890023681A29C
:10072C009AEF03F09DEF03F0FFFF9FEF03F0FFFF45
:10073C000280FFFF938895EC05F0939895EC05F0FB
:10074C00032A070E0364ADEF03F0B0EF03F0FFFFD5
:10075C0092EF03F0FFFF0150D8B4B7EF03F0BAEFFC
:10076C0003F0FFFFBEEF03F0FFFF9382C0EF03F037
:10077C00FFFF9392FFFF95EC05F0938895EC05F045
:10078C009398939202501200FFFFFFFF000E0E6E23
:10079C00000E0D6EEEEF03F0FFFF0D5009240B6EF3
:1007AC000E500A200C6E0BC0F6FF0CC0F7FFF86A57
:1007BC00050EF76404D00800FFFFF55005D0F6CF06
:1007CC00E9FFF7CFEAFFEF5012EC04F00D4A0E2AC6
:1007DC00FFFF0D5009240B6E0E500A200C6E0BC03F
:1007EC00F6FF0CC0F7FFF86A050EF76404D008009A
:1007FC00FFFFF55005D0F6CFE9FFF7CFEAFFEF503A
:10080C000009D8A40CEF04F00FEF04F0FFFFD2EFB7
:10081C0003F0FFFF1200FFFFFFFF086E08500F0BE5
:10082C00026E0850F00B036E8C8403380F0B58ECDF
:10083C0004F08C86820E056E330E046EFFFF0000F2
:10084C000406D8A0050605BE34EF04F0055009E1F6
:10085C000404D8A034EF04F037EF04F0FFFF24EFCA
:10086C0004F0FFFF8C96025058EC04F08C86820E3C
:10087C00076E330E066EFFFF00000606D8A00706B3
:10088C0007BE51EF04F0075009E10604D8A051EF60
:10089C0004F054EF04F0FFFF41EF04F0FFFF8C96DF
:1008AC001200FFFFFFFF016E01A05FEF04F062EF8B
:1008BC0004F0FFFF66EF04F0FFFF8C8868EF04F094
:1008CC00FFFF8C98FFFF01A26EEF04F071EF04F0B4
:1008DC00FFFF75EF04F0FFFF8C8A77EF04F0FFFF4A
:1008EC008C9AFFFF01A47DEF04F080EF04F0FFFF72
:1008FC0084EF04F0FFFF8C8C86EF04F0FFFF8C9CE0
:10090C00FFFF01A68CEF04F08FEF04F0FFFF93EFD5
:10091C0004F0FFFF8C8E95EF04F0FFFF8C9EFFFF21
:10092C001200FFFFFFFF016E080E036EFFFF01AE0A
:10093C00A2EF04F0A5EF04F0FFFFA9EF04F0FFFF16
:10094C009382ABEF04F0FFFF9392FFFFD890013638
:10095C00938895EC05F0939895EC05F003060350FD
:10096C00D8A4BBEF04F0BEEF04F0FFFF9CEF04F043
:10097C00FFFF93829388020EFFFFE82EFDD700D075
:10098C00FFFF81A8CCEF04F0CFEF04F0FFFFC6EF20
:10099C0004F0FFFF000E81B2010E026E939802501C
:1009AC001200FFFFFFFF056E0504D8A4E0EF04F072
:1009BC00E3EF04F0FFFFF5EF04F0FFFF04507F0FAF
:1009CC00086E08380F0B066E08500F0B076E06509A
:1009DC0049EC05F0075049EC05F010EF05F0FFFF6E
:1009EC00020E0518D8A4FDEF04F000EF05F0FFFF90
:1009FC0010EF05F0FFFF0450BF0F086E08380F0B07
:100A0C00066E08500F0B076E065049EC05F00750A8
:100A1C0049EC05F0FFFF1200FFFFFFFF000E58EC42
:100A2C0004F0030E49EC05F00A0E046EBE0EFFFF37
:100A3C00E82EFDD7042EFBD700D0030E49EC05F0B1
:100A4C00160E046E700EFFFFE82EFDD7042EFBD79A
:100A5C0000D0030E49EC05F0020E49EC05F0020E35
:100A6C0049EC05F0080E49EC05F0000E49EC05F0D8
:100A7C000C0E49EC05F0000E49EC05F0060E49ECA5
:100A8C0005F01200FFFFFFFF036E8C94035058EC2F
:100A9C0004F08C86080E026ECB0EFFFFE82EFDD7FD
:100AAC00022EFBD700D08C961200FFFFFFFF938223
:100ABC0095EC05F0938895EC05F0939295EC05F088
:100ACC00939895EC05F01200FFFFFFFF938295ECD5
:100ADC0005F0938895EC05F0939295EC05F09398BE
:100AEC001200FFFFFFFF939295EC05F0938895ECB5
:100AFC0005F0938295EC05F01200FFFFFFFF000E4E
:100B0C0049EC05F0010E49EC05F01200FFFF156AE7
:100B1C00146A136A000EF86E000106EF03F0FFFF73
:100B2C00050EFFFFE82EFDD71200FFFFFFFF938895
:0C0B3C0093828A928A981200FFFFFFFF4C
:020000040030CA
:020002000F0EDF
:00000001FF
