:06000000000041EF00F0DA
:10001800FFFF4180D8CF2EF0E8CF2FF0E0CF30F0AF
:10002800FACF31F0FBCF32F0D9CF33F0DACF34F05A
:10003800F29EF29C9EA623EF00F026EF00F0FFFF51
:100048002DEF00F0FFFF240E296E080E2A6E05EC36
:1000580003F0FFFFF28CF28E34C0DAFF33C0D9FF11
:1000680032C0FBFF31C0FAFF30C0E0FF2FC0E8FF0D
:0E0078002EC0D8FF41901000FFFF9AEF05F058
:1006000000536C6176653A200000FFFF9E96C69805
:10061000C6BC0DEF03F010EF03F0FFFF19EF03F07E
:10062000FFFFC6AE16EF03F019EF03F0FFFF1FEF59
:1006300003F0FFFFC950C69CC69EC6889E96FFFF6A
:10064000C950C7A426EF03F029EF03F0FFFF6BEFBB
:1006500003F0FFFF000E2C6E000E2B6EFFFFC698FE
:100660002B50010FD96EDA6ADF50C96EC688FFFFC2
:100670009EB63DEF03F040EF03F0FFFF49EF03F0BC
:10068000FFFFC7A846EF03F049EF03F0FFFF37EF86
:1006900003F0FFFF9E96C7A850EF03F053EF03F05F
:1006A000FFFF56EF03F0FFFFC0EF03F0FFFF2B4A01
:1006B0002C2A2CBE65EF03F02C500AE1200E2B5C97
:1006C000D8A065EF03F068EF03F0FFFF2EEF03F013
:1006D000FFFFC0EF03F0FFFF000E2D6EFFFF9EB681
:1006E00074EF03F077EF03F0FFFF80EF03F0FFFFFD
:1006F000C7A87DEF03F080EF03F0FFFF6EEF03F07C
:10070000FFFF9E96C7A887EF03F08AEF03F0FFFF75
:100710008DEF03F0FFFFC0EF03F0FFFFC6982D50F1
:10072000600FD96EDA6AC9CFDFFF29502A10D8B41A
:100730009CEF03F09FEF03F0FFFFB4EF03F0FFFF28
:1007400002D8B4EF03F0FFFF0500FA6E2950FD6EEA
:100750002A50FE6EF850FF6EFA502D50600FD96E81
:10076000DA6ADF501200FFFFFFFFC6882D2A1F0E36
:100770002D64BDEF03F0C0EF03F0FFFF6EEF03F059
:10078000FFFFC688C0EC05F01200FFFFFFFF41A08D
:10079000CCEF03F012EF04F0FFFF3C6E3C500F0B68
:1007A000366E3C50F00B376E8C8437380F0B58EC9C
:1007B00004F08C86820E396E330E386EFFFF000017
:1007C0003806D8A0390639BEEEEF03F0395009E1FA
:1007D0003804D8A0EEEF03F0F1EF03F0FFFFDEEFF7
:1007E00003F0FFFF8C96365058EC04F08C86820E96
:1007F0003B6E330E3A6EFFFF00003A06D8A03B0670
:100800003BBE0BEF04F03B5009E13A04D8A00BEFDC
:1008100004F00EEF04F0FFFFFBEF03F0FFFF8C96F8
:100820001200FFFFFFFF246E24500F0B226E245096
:10083000F00B236E8C8423380F0B98EC04F08C861D
:10084000820E266E330E256EFFFF00002506D8A00F
:10085000260626BE34EF04F0265009E12504D8A070
:1008600034EF04F037EF04F0FFFF24EF04F0FFFF54
:100870008C96225098EC04F08C86820E286E330EF3
:10088000276EFFFF00002706D8A0280628BE51EFDC
:1008900004F0285009E12704D8A051EF04F054EFE8
:1008A00004F0FFFF41EF04F0FFFF8C961200FFFF02
:1008B000FFFF356E35A05FEF04F062EF04F0FFFF3D
:1008C00066EF04F0FFFF8C8868EF04F0FFFF8C9860
:1008D000FFFF35A26EEF04F071EF04F0FFFF75EF3C
:1008E00004F0FFFF8C8A77EF04F0FFFF8C9AFFFF84
:1008F00035A47DEF04F080EF04F0FFFF84EF04F0F7
:10090000FFFF8C8C86EF04F0FFFF8C9CFFFF35A669
:100910008CEF04F08FEF04F0FFFF93EF04F0FFFF84
:100920008C8E95EF04F0FFFF8C9EFFFF1200FFFFFF
:10093000FFFF216E21A09FEF04F0A2EF04F0FFFF64
:10094000A6EF04F0FFFF8C88A8EF04F0FFFF8C985F
:10095000FFFF21A2AEEF04F0B1EF04F0FFFFB5EF0F
:1009600004F0FFFF8C8AB7EF04F0FFFF8C9AFFFFC3
:1009700021A4BDEF04F0C0EF04F0FFFFC4EF04F0CA
:10098000FFFF8C8CC6EF04F0FFFF8C9CFFFF21A6BD
:10099000CCEF04F0CFEF04F0FFFFD3EF04F0FFFF44
:1009A0008C8ED5EF04F0FFFF8C9EFFFF1200FFFF3F
:1009B000FFFF396E3904D8A4E0EF04F0E3EF04F050
:1009C000FFFFF5EF04F0FFFF38507F0F3C6E3C381F
:1009D0000F0B3A6E3C500F0B3B6E3A50ADEC05F0EE
:1009E0003B50ADEC05F010EF05F0FFFF020E39189B
:1009F000D8A4FDEF04F000EF05F0FFFF10EF05F0C5
:100A0000FFFF3850BF0F3C6E3C380F0B3A6E3C5026
:100A10000F0B3B6E3A50ADEC05F03B50ADEC05F0E2
:100A2000FFFF1200FFFFFFFF000E58EC04F0030E63
:100A3000ADEC05F00A0E386EBE0EFFFFE82EFDD7B6
:100A4000382EFBD700D0030EADEC05F0160E386E35
:100A5000700EFFFFE82EFDD7382EFBD700D0030E17
:100A6000ADEC05F0020EADEC05F0020EADEC05F0BC
:100A7000080EADEC05F0000EADEC05F00C0EADEC83
:100A800005F0000EADEC05F0060EADEC05F0120021
:100A9000FFFFFFFF000E406E000E3F6E5FEF05F0A0
:100AA000FFFF3D503F243E6E3EC0F6FF060EF76E40
:100AB0000800FFFFF550C6EC03F03F4A402AFFFF55
:100AC0003D503F243E6E3EC0F6FF060EF76E080016
:100AD000FFFFF5500009D8A470EF05F073EF05F0A3
:100AE000FFFF50EF05F0FFFF1200FFFFFFFF880E32
:100AF000D2EC05F0F28EF28C000E956E000E8C6E2C
:100B000013EC05F0F2EC05F0010E386E010ED8EC96
:100B100004F0010E3D6E49EC05F0680E016E690EA1
:100B2000026E700E036E000E046EFFFF95EF05F06F
:100B300041EF00F000EE60F0200EEE6AE806FDE105
:100B400000EE01F0200EEE6AE806FDE141904192D0
:100B5000000EF86E000176EF05F0FFFF376E8C9403
:100B6000375058EC04F08C86080E366ECB0EFFFF23
:100B7000E82EFDD7362EFBD700D08C961200FFFF53
:100B8000FFFF9E96C69AFFFFC6BAC9EF05F0CCEFED
:100B900005F0FFFFC3EF05F0FFFF880EE2EC05F064
:100BA0001200FFFFFFFF356E800EC76E35C0C8FF15
:100BB000360EC66E010EC56E948694889D869E96EE
:100BC0001200FFFFFFFF216E800EC76E21C0C8FF1D
:100BD000360EC66E010EC56E948694889D869E96CE
:100BE0001200FFFFFFFF000EADEC05F0010EADECB3
:0A0BF00005F01200FFFFFFFFFFFFFA
:020000040030CA
:020002000F0EDF
:00000001FF
