:04000000A2EF05F076
:070800000052583A200000ED
:10080800000E036E81B20BEF04F00DEF04F006EF5B
:1008180004F0D00E00D0E82EFDD7000E046E030EB3
:10082800016EB30EE82EFED7012EFCD7000081A280
:1008380020EF04F022EF04F030EF04F004C001F0E0
:10084800010E026E012A2BEF04F0D8900236012E19
:1008580029EF04F002500312042A070E046437EF4C
:1008680004F039EF04F013EF04F0030E016EB30E39
:10087800E82EFED7012EFCD7000003501200086EA8
:1008880008500F0B026E0850F00B036E8C8403386F
:100898000F0B1FEC05F08C86820E056E330E046E6E
:1008A80000000406D8A0050605BE63EF04F0055055
:1008B80008E10404D8A063EF04F065EF04F054EFF6
:1008C80004F08C9602501FEC05F08C86820E076EA1
:1008D800330E066E00000606D8A0070607BE7DEF99
:1008E80004F0075008E10604D8A07DEF04F07FEF7C
:1008F80004F06EEF04F08C961200036E8A90030EDB
:10090800016EB30EE82EFED7012EFCD70000000EB4
:10091800046E04C001F003C002F0012A96EF04F04F
:10092800D8900232012E94EF04F0010E02168A507C
:100938000218FE0B02188A6E030E016EB30EE82E23
:10094800FED7012EFCD70000042A070E0464AFEF7F
:1009580004F0B1EF04F08DEF04F08A80030E016E0D
:10096800B30EE82EFED7012EFCD700001200056E4C
:100978000504D8A4C2EF04F0C4EF04F0D5EF04F0E6
:1009880004507F0F086E08380F0B066E08500F0BC7
:10099800076E065092EC05F0075092EC05F0EDEF6B
:1009A80004F0020E0518D8A4DCEF04F0DEEF04F022
:1009B800EDEF04F00450BF0F086E08380F0B066EF9
:1009C80008500F0B076E065092EC05F0075092EC9A
:1009D80005F01200000E1FEC05F0030E92EC05F076
:1009E8000D0E046EFC0EE82EFED7042EFCD7030E67
:1009F80092EC05F01D0E046E910EE82EFED7042E23
:100A0800FCD70000030E92EC05F0020E92EC05F004
:100A1800020E92EC05F0080E92EC05F0000E92EC36
:100A280005F00C0E92EC05F0000E92EC05F0060EA7
:100A380092EC05F01200016E01A025EF05F027EFFA
:100A480005F02AEF05F08C882BEF05F08C9801A2B1
:100A580030EF05F032EF05F035EF05F08C8A36EF10
:100A680005F08C9A01A43BEF05F03DEF05F040EF4F
:100A780005F08C8C41EF05F08C9C01A646EF05F043
:100A880048EF05F04BEF05F08C8E4CEF05F08C9E8F
:100A98001200000E956E000E8C6EEEEC04F0010E46
:100AA800046E010EBBEC04F0A9EC05F0010E096E12
:100AB80071EC05F0B5EC05F004EC04F00D6E420E97
:100AC800E82EFED700D0610E81EC04F00D50B0EC9A
:100AD80005F060EF05F000EF00F0000E0C6E000E60
:100AE8000B6E82EF05F009500B240A6E0AC0F6FF60
:100AF8000800F55043EC04F00B4A0C2A09500B246B
:100B08000A6E0AC0F6FF0800F5500009D8A48FEF56
:100B180005F091EF05F077EF05F01200036E8C9465
:100B280003501FEC05F08C860B0E026E620EE82E49
:100B3800FED7022EFCD700D08C961200000EF86E5D
:100B4800080EF76E00014DEF05F0000E92EC05F06F
:100B5800010E92EC05F01200096E095043EC04F006
:0A0B6800120093908A80938212001D
:020000040030CA
:020002001F1EBF
:00000001FF
