:0400000007EF00F016
:0A0008005D8200ED18F0E5EF17F03F
:070800000052583A200000ED
:100808000001706F000E0001916F240E926FF40EBC
:10081800936F4A0E946F53C001F054C002F055C054
:1008280003F056C004F0000E70EC12F001C095F011
:1008380002C096F003C097F004C098F0000E376E1F
:10084800000E386E800E396EBF0E3A6E000E056EC1
:10085800000E066E800E076E420E086E95C001F0FF
:1008680096C002F097C003F098C004F08EEC0EF02A
:1008780001C01EF002C01FF003C020F004C021F028
:1008880091C01AF092C01BF093C01CF094C01DF0E8
:10089800A3EC10F01AC033F01BC034F01CC035F0C4
:1008A8001DC036F02EEC0CF033C043F034C044F0D9
:1008B80035C045F036C046F0D9EC13F043C075F0AA
:1008C80044C076F045C077F046C078F0000E376E29
:1008D800000E386E800E396EBF0E3A6E000E056E31
:1008E800000E066E800E076E410E086E95C001F070
:1008F80096C002F097C003F098C004F08EEC0EF09A
:1009080001C01EF002C01FF003C020F004C021F097
:1009180091C01AF092C01BF093C01CF094C01DF057
:10092800A3EC10F01AC033F01BC034F01CC035F033
:100938001DC036F02EEC0CF033C043F034C044F048
:1009480035C045F036C046F0D9EC13F043C085F009
:1009580044C086F045C087F046C088F0000E376E68
:10096800000E386E800E396EBF0E3A6E000E056EA0
:10097800000E066E800E076E400E086E95C001F0E0
:1009880096C002F097C003F098C004F08EEC0EF009
:1009980001C01EF002C01FF003C020F004C021F007
:1009A80091C01AF092C01BF093C01CF094C01DF0C7
:1009B800A3EC10F01AC033F01BC034F01CC035F0A3
:1009C8001DC036F02EEC0CF033C043F034C044F0B8
:1009D80035C045F036C046F0D9EC13F043C089F075
:1009E80044C08AF045C08BF046C08CF0000178BF47
:1009F80008EF05F078517711761108E17505D8A050
:100A080008EF05F00AEF05F06AEF08F095C047F027
:100A180096C048F097C049F098C04AF075C057F0A2
:100A280076C058F077C059F078C05AF0060ED890C2
:100A38005736583659365A36E82E1BEF05F0400E11
:100A48005724016E000E5820026E000E5920036EC6
:100A5800000E5A20046E010E70EC12F001C01EF058
:100A680002C01FF003C020F004C021F091C01AF0AA
:100A780092C01BF093C01CF094C01DF0A3EC10F0C2
:100A88001AC043F01BC044F01CC045F01DC046F01E
:100A980077EC17F043C08DF044C08EF045C08FF05E
:100AA80046C090F08DC01AF08EC01BF08FC01CF0AD
:100AB80090C01DF095C01EF096C01FF097C020F0A2
:100AC80098C021F0A3EC10F01AC04BF01BC04CF0FA
:100AD8001CC04DF01DC04EF0BBEC17F04BC06CF0C5
:100AE8004CC06DF04DC06EF04EC06FF095C047F031
:100AF80096C048F097C049F098C04AF075C057F0C2
:100B080076C058F077C059F078C05AF0060ED890E1
:100B18005736583659365A36E82E8BEF05F0800E80
:100B28005724016E000E5820026E000E5920036EE5
:100B3800000E5A20046E010E70EC12F001C01EF077
:100B480002C01FF003C020F004C021F091C01AF0C9
:100B580092C01BF093C01CF094C01DF0A3EC10F0E1
:100B68001AC043F01BC044F01CC045F01DC046F03D
:100B780077EC17F043C08DF044C08EF045C08FF07D
:100B880046C090F08DC01AF08EC01BF08FC01CF0CC
:100B980090C01DF095C01EF096C01FF097C020F0C1
:100BA80098C021F0A3EC10F01AC04BF01BC04CF019
:100BB8001CC04DF01DC04EF0BBEC17F04BC064F0EC
:100BC8004CC065F04DC066F04EC067F064C001F0DF
:100BD80065C002F066C003F067C004F06CC005F0A1
:100BE8006DC006F06EC007F06FC008F05CEC14F042
:100BF800D8B001EF06F003EF06F018EF06F064C076
:100C08006CF065C06DF066C06EF067C06FF0010EE5
:100C180000017525756F000E7621766F000E77211D
:100C2800776F000E7821786F95C047F096C048F02E
:100C380097C049F098C04AF085C057F086C058F070
:100C480087C059F088C05AF0040ED89057365836E5
:100C580059365A36E82E29EF06F0100E5724016E41
:100C6800000E5820026E000E5920036E000E5A2006
:100C7800046E010E70EC12F001C01EF002C01FF0ED
:100C880003C020F004C021F091C01AF092C01BF0FC
:100C980093C01CF094C01DF0A3EC10F01AC043F0F0
:100CA8001BC044F01CC045F01DC046F077EC17F09F
:100CB80043C08DF044C08EF045C08FF046C090F020
:100CC8008DC01AF08EC01BF08FC01CF090C01DF0B4
:100CD80095C01EF096C01FF097C020F098C021F074
:100CE800A3EC10F01AC04BF01BC04CF01CC04DF028
:100CF8001DC04EF0BBEC17F04BC079F04CC07AF039
:100D08004DC07BF04EC07CF095C047F096C048F0CF
:100D180097C049F098C04AF085C057F086C058F08F
:100D280087C059F088C05AF0040ED8905736583604
:100D380059365A36E82E99EF06F0200E5724016EE0
:100D4800000E5820026E000E5920036E000E5A2025
:100D5800046E010E70EC12F001C01EF002C01FF00C
:100D680003C020F004C021F091C01AF092C01BF01B
:100D780093C01CF094C01DF0A3EC10F01AC043F00F
:100D88001BC044F01CC045F01DC046F077EC17F0BE
:100D980043C08DF044C08EF045C08FF046C090F03F
:100DA8008DC01AF08EC01BF08FC01CF090C01DF0D3
:100DB80095C01EF096C01FF097C020F098C021F093
:100DC800A3EC10F01AC04BF01BC04CF01CC04DF047
:100DD8001DC04EF0BBEC17F04BC071F04CC072F068
:100DE8004DC073F04EC074F071C001F072C002F0D3
:100DF80073C003F074C004F079C005F07AC006F03F
:100E08007BC007F07CC008F05CEC14F0D8B00FEFA2
:100E180007F011EF07F026EF07F071C079F072C004
:100E28007AF073C07BF074C07CF0010E0001852558
:100E3800856F000E8621866F000E8721876F000E52
:100E48008821886F95C047F096C048F097C049F050
:100E580098C04AF089C057F08AC058F08BC059F042
:100E68008CC05AF0020ED8905736583659365A3632
:100E7800E82E37EF07F0040E5724016E000E5820B5
:100E8800026E000E5920036E000E5A20046E010EE9
:100E980070EC12F001C01EF002C01FF003C020F079
:100EA80004C021F091C01AF092C01BF093C01CF04E
:100EB80094C01DF0A3EC10F01AC043F01BC044F01E
:100EC8001CC045F01DC046F077EC17F043C08DF00C
:100ED80044C08EF045C08FF046C090F08DC01AF027
:100EE8008EC01BF08FC01CF090C01DF095C01EF086
:100EF80096C01FF097C020F098C021F0A3EC10F026
:100F08001AC04BF01BC04CF01CC04DF01DC04EF079
:100F1800BBEC17F04BC081F04CC082F04DC083F0A1
:100F28004EC084F095C047F096C048F097C049F08D
:100F380098C04AF089C057F08AC058F08BC059F061
:100F48008CC05AF0020ED8905736583659365A3651
:100F5800E82EA7EF07F0080E5724016E000E582060
:100F6800026E000E5920036E000E5A20046E010E08
:100F780070EC12F001C01EF002C01FF003C020F098
:100F880004C021F091C01AF092C01BF093C01CF06D
:100F980094C01DF0A3EC10F01AC043F01BC044F03D
:100FA8001CC045F01DC046F077EC17F043C08DF02B
:100FB80044C08EF045C08FF046C090F08DC01AF046
:100FC8008EC01BF08FC01CF090C01DF095C01EF0A5
:100FD80096C01FF097C020F098C021F0A3EC10F045
:100FE8001AC04BF01BC04CF01CC04DF01DC04EF099
:100FF800BBEC17F04BC07DF04CC07EF04DC07FF0CD
:101008004EC080F07DC001F07EC002F07FC003F0CA
:1010180080C004F081C005F082C006F083C007F0EC
:1010280084C008F05CEC14F0D8B01DEF08F01FEF96
:1010380008F034EF08F07DC081F07EC082F07FC0F8
:1010480083F080C084F0010E00018925896F000EAD
:101058008A218A6F000E8B218B6F000E8C218C6F7A
:1010680079C00FF07AC010F07BC011F07CC012F08C
:1010780081C013F082C014F083C015F084C016F04C
:101088004AEC13F00FC060F010C061F011C062F0BC
:1010980012C063F06CC00FF06DC010F06EC011F09C
:1010A8006FC012F060C013F061C014F062C015F098
:1010B80063C016F04AEC13F00FC068F010C069F076
:1010C80011C06AF012C06BF0AFEF0BF088BF77EF7A
:1010D80008F088518711861108E18505D8A077EFB7
:1010E80008F079EF08F097EF0AF095C047F096C03E
:1010F80048F097C049F098C04AF085C057F086C0BC
:1011080058F087C059F088C05AF0040ED890573666
:10111800583659365A36E82E8AEF08F0100E5724FA
:10112800016E000E5820026E000E5920036E000E4C
:101138005A20046E010E70EC12F001C01EF002C0BD
:101148001FF003C020F004C021F091C01AF092C033
:101158001BF093C01CF094C01DF0A3EC10F01AC053
:1011680043F01BC044F01CC045F01DC046F077ECAE
:1011780017F043C08DF044C08EF045C08FF046C0D4
:1011880090F08DC01AF08EC01BF08FC01CF090C07C
:101198001DF095C01EF096C01FF097C020F098C0B3
:1011A80021F0A3EC10F01AC04BF01BC04CF01CC08F
:1011B8004DF01DC04EF0BBEC17F04BC079F04CC0A1
:1011C8007AF04DC07BF04EC07CF095C047F096C0D9
:1011D80048F097C049F098C04AF085C057F086C0DB
:1011E80058F087C059F088C05AF0040ED890573686
:1011F800583659365A36E82EFAEF08F0200E57249A
:10120800016E000E5820026E000E5920036E000E6B
:101218005A20046E010E70EC12F001C01EF002C0DC
:101228001FF003C020F004C021F091C01AF092C052
:101238001BF093C01CF094C01DF0A3EC10F01AC072
:1012480043F01BC044F01CC045F01DC046F077ECCD
:1012580017F043C08DF044C08EF045C08FF046C0F3
:1012680090F08DC01AF08EC01BF08FC01CF090C09B
:101278001DF095C01EF096C01FF097C020F098C0D2
:1012880021F0A3EC10F01AC04BF01BC04CF01CC0AE
:101298004DF01DC04EF0BBEC17F04BC071F04CC0C8
:1012A80072F04DC073F04EC074F071C001F072C09E
:1012B80002F073C003F074C004F079C005F07AC07E
:1012C80006F07BC007F07CC008F05CEC14F0D8B0E6
:1012D80070EF09F072EF09F07AEF09F071C079F058
:1012E80072C07AF073C07BF074C07CF095C047F090
:1012F80096C048F097C049F098C04AF089C057F0A6
:101308008AC058F08BC059F08CC05AF0020ED890A1
:101318005736583659365A36E82E8BEF09F0040EF0
:101328005724016E000E5820026E000E5920036EDD
:10133800000E5A20046E010E70EC12F001C01EF06F
:1013480002C01FF003C020F004C021F091C01AF0C1
:1013580092C01BF093C01CF094C01DF0A3EC10F0D9
:101368001AC043F01BC044F01CC045F01DC046F035
:1013780077EC17F043C08DF044C08EF045C08FF075
:1013880046C090F08DC01AF08EC01BF08FC01CF0C4
:1013980090C01DF095C01EF096C01FF097C020F0B9
:1013A80098C021F0A3EC10F01AC04BF01BC04CF011
:1013B8001CC04DF01DC04EF0BBEC17F04BC081F0C7
:1013C8004CC082F04DC083F04EC084F095C047F009
:1013D80096C048F097C049F098C04AF089C057F0C5
:1013E8008AC058F08BC059F08CC05AF0020ED890C1
:1013F8005736583659365A36E82EFBEF09F0080E9C
:101408005724016E000E5820026E000E5920036EFC
:10141800000E5A20046E010E70EC12F001C01EF08E
:1014280002C01FF003C020F004C021F091C01AF0E0
:1014380092C01BF093C01CF094C01DF0A3EC10F0F8
:101448001AC043F01BC044F01CC045F01DC046F054
:1014580077EC17F043C08DF044C08EF045C08FF094
:1014680046C090F08DC01AF08EC01BF08FC01CF0E3
:1014780090C01DF095C01EF096C01FF097C020F0D8
:1014880098C021F0A3EC10F01AC04BF01BC04CF030
:101498001CC04DF01DC04EF0BBEC17F04BC07DF0EA
:1014A8004CC07EF04DC07FF04EC080F07DC001F092
:1014B8007EC002F07FC003F080C004F081C005F058
:1014C80082C006F083C007F084C008F05CEC14F01A
:1014D800D8B071EF0AF073EF0AF07BEF0AF07DC025
:1014E80081F07EC082F07FC083F080C084F079C034
:1014F8000FF07AC010F07BC011F07CC012F081C0F0
:1015080013F082C014F083C015F084C016F04AECC2
:1015180013F00FC068F010C069F011C06AF012C073
:101528006BF0AFEF0BF08CBFA4EF0AF08C518B116E
:101538008A1108E18905D8A0A4EF0AF0A6EF0AF0FD
:101548002DEF0CF095C047F096C048F097C049F0D1
:1015580098C04AF089C057F08AC058F08BC059F03B
:101568008CC05AF0020ED8905736583659365A362B
:10157800E82EB7EF0AF0040E5724016E000E58202B
:10158800026E000E5920036E000E5A20046E010EE2
:1015980070EC12F001C01EF002C01FF003C020F072
:1015A80004C021F091C01AF092C01BF093C01CF047
:1015B80094C01DF0A3EC10F01AC043F01BC044F017
:1015C8001CC045F01DC046F077EC17F043C08DF005
:1015D80044C08EF045C08FF046C090F08DC01AF020
:1015E8008EC01BF08FC01CF090C01DF095C01EF07F
:1015F80096C01FF097C020F098C021F0A3EC10F01F
:101608001AC04BF01BC04CF01CC04DF01DC04EF072
:10161800BBEC17F04BC081F04CC082F04DC083F09A
:101628004EC084F095C047F096C048F097C049F086
:1016380098C04AF089C057F08AC058F08BC059F05A
:101648008CC05AF0020ED8905736583659365A364A
:10165800E82E27EF0BF0080E5724016E000E5820D5
:10166800026E000E5920036E000E5A20046E010E01
:1016780070EC12F001C01EF002C01FF003C020F091
:1016880004C021F091C01AF092C01BF093C01CF066
:1016980094C01DF0A3EC10F01AC043F01BC044F036
:1016A8001CC045F01DC046F077EC17F043C08DF024
:1016B80044C08EF045C08FF046C090F08DC01AF03F
:1016C8008EC01BF08FC01CF090C01DF095C01EF09E
:1016D80096C01FF097C020F098C021F0A3EC10F03E
:1016E8001AC04BF01BC04CF01CC04DF01DC04EF092
:1016F800BBEC17F04BC07DF04CC07EF04DC07FF0C6
:101708004EC080F07DC001F07EC002F07FC003F0C3
:1017180080C004F081C005F082C006F083C007F0E5
:1017280084C008F05CEC14F0D8B09DEF0BF09FEF8C
:101738000BF0A7EF0BF07DC081F07EC082F07FC078
:1017480083F080C084F081C068F082C069F083C0F3
:101758006AF084C06BF068C001F069C002F06AC02A
:1017680003F06BC004F06CC005F06DC006F06EC0ED
:1017780007F06FC008F05DEC15F0D8A0C6EF0BF0CD
:10178800C8EF0BF0CEEF0BF0AC94B89675C0AFFF76
:10179800F5EF0BF068C001F069C002F06AC003F011
:1017A8006BC004F079C005F07AC006F07BC007F082
:1017B8007CC008F05DEC15F0D8A0E5EF0BF0E7EF82
:1017C8000BF0EFEF0BF0AC84B89685C0AFFF86C086
:1017D800B0FFF5EF0BF0AC84B88689C0AFFF8AC0C4
:1017E800B0FF948C948E000170A3FDEF0BF0FFEF17
:1017F8000BF003EF0CF0B888B88A05EF0CF0B89A34
:10180800B89870A50AEF0CF00CEF0CF00FEF0CF085
:101818009D8A11EF0CF09D9A9D9870A716EF0CF019
:1018280018EF0CF01CEF0CF0AC8CAB8C1EEF0CF02E
:10183800AC9CAB9C70A123EF0CF025EF0CF028EFCB
:101848000CF0AC9829EF0CF0AC88AB88AB8AAC8A6A
:10185800AB8E12003650800B3F6E36503624416EE8
:1018680035AE39EF0CF03BEF0CF03CEF0CF041805B
:101878004150D8B442EF0CF044EF0CF059EF0CF0A3
:101888004128D8A44AEF0CF04CEF0CF054EF0CF0C0
:10189800000E336E000E346E000E356E000E366E7E
:1018A800358E000E366E61EF0CF0000E336E000EB2
:1018B800346E000E356E000E366E3A50800B406E58
:1018C8003F504018D8B46BEF0CF06DEF0CF06EEF92
:1018D8000CF03F8C3A503A24406E39AE76EF0CF05B
:1018E80078EF0CF079EF0CF040804050D8B47FEFDF
:1018F8000CF081EF0CF096EF0CF04028D8A487EF9D
:101908000CF089EF0CF091EF0CF0000E376E000E22
:10191800386E000E396E000E3A6E398E000E3A6E31
:101928009EEF0CF0000E376E000E386E000E396E0A
:10193800000E3A6E4150405CD8B0A5EF0CF0A7EF0E
:101948000CF0CEEF0CF03FACACEF0CF0AEEF0CF0BF
:10195800B0EF0CF0800E3F1A41C042F040C041F099
:1019680042C040F033C042F037C033F042C037F0D5
:1019780034C042F038C034F042C038F035C042F0CC
:1019880039C035F042C039F036C042F03AC036F0BE
:1019980042C03AF0000E426E415040C03BF03C6AF3
:1019A8003B5E000E3C5A3CBEE3EF0CF03C5009E1B4
:1019B8001A0E3B5CD8A0E3EF0CF0E5EF0CF01CEF3F
:1019C8000DF03350341035103610D8A4EEEF0CF06B
:1019D800F1EF0CF0010EF2EF0CF0000E426E000E6B
:1019E800336E000E346E000E356E000E366E40C03B
:1019F80041F025EF0DF042A004EF0DF006EF0DF0D9
:101A08000CEF0DF0D89042300109426E0EEF0DF048
:101A1800D890423233A013EF0DF015EF0DF016EF0A
:101A28000DF0428E36343632353234323332412A72
:101A38004050415CD8A023EF0DF025EF0DF0FFEFEB
:101A48000CF03FBC2AEF0DF02CEF0DF06CEF0DF011
:101A58004150D8A432EF0DF034EF0DF03EEF0DF009
:101A6800000E336E000E346E000E356E000E366EAC
:101A78008DEF0EF037503326385034223950352246
:101A88003A50362236A04BEF0DF04DEF0DF0F9EF3E
:101A98000DF042A052EF0DF054EF0DF05AEF0DF09B
:101AA800D89042300109426E5CEF0DF0D890423276
:101AB80033A061EF0DF063EF0DF064EF0DF0428E8F
:101AC80036343632353234323332412AF9EF0DF0BA
:101AD8003750335C38503458395035583650800AAE
:101AE8003B6E3A50800A3B58D8B07DEF0DF07FEF3F
:101AF8000DF0AAEF0DF03350375C3B6E3450385878
:101B08003C6E355039583D6E36503A583E6EFF0E91
:101B18003B24336EFF0E3C20346EFF0E3D20356EA5
:101B2800FF0E3E20366E800E3F1A426C4250D8A4FB
:101B3800A0EF0DF0A2EF0DF0B2EF0DF0010E33267D
:101B4800000E342235223622B2EF0DF03750335EC4
:101B58003850345A3950355A3A50365A335034106E
:101B680035103610D8A4BBEF0DF0BDEF0DF0F2EF35
:101B78000DF04250D8A4C3EF0DF0C5EF0DF0F2EF11
:101B88000DF0000E336E000E346E000E356E000E32
:101B9800366E8DEF0EF0D89033363436353636360D
:101BA80042AED9EF0DF0DBEF0DF0DCEF0DF0338036
:101BB80042A0E1EF0DF0E3EF0DF0E7EF0DF0D88074
:101BC8004236E9EF0DF0D89042364150D8B4EFEFE5
:101BD8000DF0F1EF0DF0F2EF0DF0410635AEF7EF35
:101BE8000DF0F9EF0DF0CFEF0DF0000E406E42AEA4
:101BF80000EF0EF002EF0EF01AEF0EF042C03BF0CD
:101C08007F0E3B16D8B40BEF0EF00DEF0EF011EF70
:101C18000EF0010E406E1AEF0EF033A016EF0EF024
:101C280018EF0EF01AEF0EF00DEF0EF04050D8B48A
:101C380020EF0EF022EF0EF04DEF0EF0010E3326DE
:101C4800000E34223522362236A02DEF0EF02FEF6B
:101C58000EF04DEF0EF033C03BF034C03CF035C011
:101C68003DF036C03EF03E343E323D323C323B32EF
:101C78003BC033F03CC034F03DC035F03EC036F0D8
:101C88004128D8B44AEF0EF04CEF0EF04DEF0EF0AD
:101C9800412A4128D8B453EF0EF055EF0EF05DEF0E
:101CA8000EF04150D8A45BEF0EF05DEF0EF06FEF31
:101CB8000EF0000E336E000E346E000E356E000E00
:101CC800366E4150D8A46BEF0EF06DEF0EF06FEF4B
:101CD8000EF0000E3F6E41A074EF0EF076EF0EF09E
:101CE80079EF0EF0358E7AEF0EF0359ED8904130B0
:101CF800366E3FAE82EF0EF084EF0EF085EF0EF0F9
:101D0800368E33C033F034C034F035C035F036C0C9
:101D180036F012000450800B0D6E04500424136E2C
:101D280003AE99EF0EF09BEF0EF09CEF0EF01380D0
:101D38001350D8B4A2EF0EF0A4EF0EF0B7EF0EF0E8
:101D48001328D8A4AAEF0EF0ACEF0EF0B4EF0EF003
:101D5800000E016E000E026E000E036E000E046E81
:101D6800038EBFEF0EF0000E016E000E026E000E25
:101D7800036E000E046E0850800B0D1A08500824DC
:101D8800126E07AECAEF0EF0CCEF0EF0CDEF0EF0EC
:101D980012801250D8B4D3EF0EF0D5EF0EF0E8EF62
:101DA8000EF01228D8A4DBEF0EF0DDEF0EF0E5EF11
:101DB8000EF0000E056E000E066E000E076E000E89
:101DC800086E078EF0EF0EF0000E056E000E066E20
:101DD800000E076E000E086E1250D8B4F6EF0EF023
:101DE800F8EF0EF000EF0FF01350D8A4FEEF0EF04E
:101DF80000EF0FF00AEF0FF0000E016E000E026EFA
:101E0800000E036E000E046EA2EF10F007500102E0
:101E1800F3CF18F0F4CF19F018500E6E0F6A106A4D
:101E2800116A1950146E156A166A176A065002026A
:101E3800F3CF18F0F4CF19F018500E26000E0F2229
:101E48001022112219501426000E152216221722CC
:101E580005500302F3CF18F0F4CF19F018500E26EE
:101E6800000E0F221022112219501426000E1522DE
:101E78001622172210C011F00FC010F00EC00FF07C
:101E88000E6A05500202F3CF18F0F4CF19F018507B
:101E98000E2619500F22000E1022000E1122065095
:101EA8000102F3CF18F0F4CF19F018500E2619508C
:101EB8000F22000E1022000E112210C011F00FC0C8
:101EC80010F00EC00FF00E6A05500102F3CF18F0A3
:101ED800F4CF19F018500E2619500F22000E1022B8
:101EE800000E112207500202F3CF18F0F4CF19F0B8
:101EF8001850142619501522000E1622000E17220B
:101F080006500302F3CF18F0F4CF19F01850142636
:101F180019501522000E1622000E17220750030230
:101F2800F3CF18F0F4CF19F01850096E19500A6E53
:101F38000B6A0C6A0BC00CF00AC00BF009C00AF05F
:101F4800096A095014260A5015220B5016220C5003
:101F580017220EC009F00FC00AF010C00BF011C014
:101F68000CF0190EBDEF0FF0D8900C320B320A327C
:101F78000932E82EB8EF0FF0095014260A5015223E
:101F88000B5016220C50172210C011F00FC010F081
:101F98000EC00FF00E6A125013C009F00A6A092623
:101FA800000E0A22820E0924186EFF0E0A20196EEE
:101FB800F3EF0FF0D890143615361636173611AEE3
:101FC800E8EF0FF0EAEF0FF0EBEF0FF01480D89086
:101FD8000E360F36103611361806D8A0190616AE6A
:101FE800F8EF0FF0FAEF0FF0DEEF0FF0000E126EC1
:101FF80011AE01EF10F003EF10F027EF10F0FF0E15
:102008000E14096EFF0E0F140A6EFF0E10140B6EDD
:102018007F0E11140C6E09500A100B100C10D8B456
:1020280018EF10F01AEF10F01EEF10F0010E126EFC
:1020380027EF10F014A023EF10F025EF10F027EF92
:1020480010F01AEF10F01250D8B42DEF10F02FEF57
:1020580010F053EF10F0010E1426000E1522162270
:10206800172217A03AEF10F03CEF10F053EF10F0E2
:1020780014C009F015C00AF016C00BF017C00CF018
:102088000C340C320B320A32093209C014F00AC07F
:1020980015F00BC016F00CC017F0184A192A19BE13
:1020A8005EEF10F0195008E11828D8A05EEF10F084
:1020B80060EF10F06AEF10F0000E146E000E156E4F
:1020C800800E166E7F0E176E98EF10F019BE77EF20
:1020D80010F0195006E11804D8B075EF10F077EF3A
:1020E80010F083EF10F0000E146E000E156E000E47
:1020F800166E000E176E000E0D6E98EF10F018C0D9
:1021080013F0FF0E1416FF0E15167F0E1616000E8E
:10211800171613A092EF10F094EF10F095EF10F04F
:10212800168ED8901330176E0D50171214C001F088
:1021380015C002F016C003F017C004F012001D50BD
:10214800800B2A6E1D501D24316E1CAEAEEF10F0B0
:10215800B0EF10F0B1EF10F031803150D8B4B7EFD4
:1021680010F0B9EF10F0CEEF10F03128D8A4BFEF7F
:1021780010F0C1EF10F0C9EF10F0000E1A6E000E4B
:102188001B6E000E1C6E000E1D6E1C8E000E1D6E4A
:10219800D6EF10F0000E1A6E000E1B6E000E1C6EAD
:1021A800000E1D6E2150800B2A1A21502124326EF8
:1021B80020AEE1EF10F0E3EF10F0E4EF10F0328022
:1021C8003250D8B4EAEF10F0ECEF10F001EF11F054
:1021D8003228D8A4F2EF10F0F4EF10F0FCEF10F072
:1021E800000E1E6E000E1F6E000E206E000E216E79
:1021F800208E000E216E09EF11F0000E1E6E000EEB
:102208001F6E000E206E000E216E1E501F10201033
:102218002110D8A412EF11F014EF11F02CEF11F0E7
:10222800000E1A6E000E1B6E000E1C6E000E1D6E48
:10223800800E1C127F0E1D122A501D121AC01AF091
:102248001BC01BF01CC01CF01DC01DF06FEF12F06E
:102258003150D8A432EF11F034EF11F03EEF11F005
:10226800000E1A6E000E1B6E000E1C6E000E1D6E08
:102278006FEF12F0325031C022F0236A225E000E56
:10228800235A7F0E22242B6E000E23202C6E1AC098
:1022980026F01BC027F01CC028F01DC029F0000E36
:1022A8001A6E000E1B6E000E1C6E000E1D6E000EC8
:1022B8002D6E000E2E6E000E2F6E000E306E000E6C
:1022C800326E9FEF11F03250D8B46DEF11F06FEF0E
:1022D80011F086EF11F0D8902636273628362936A1
:1022E800D8901A361B361C361D3630AE7EEF11F0EC
:1022F80080EF11F081EF11F01A80D8902D362E362C
:102308002F3630361E50265C1F502758205028582C
:1023180021502958D8A093EF11F095EF11F09EEFB6
:1023280011F0308C1E50265E1F50275A2050285A14
:102338002150295A322A190E3264A5EF11F0A7EF5D
:1023480011F067EF11F02650271028102910D8B483
:10235800B0EF11F0B2EF11F0CAEF11F02D80CAEF13
:1023680011F0D8901A361B361C361D3630AEBFEF2A
:1023780011F0C1EF11F0C2EF11F01A80D8902D368C
:102388002E362F3630362B06D8A02C061CAECFEFB3
:1023980011F0D1EF11F0B5EF11F0000E326E30AE42
:1023A800D8EF11F0DAEF11F0FEEF11F0FF0E2D1457
:1023B800226EFF0E2E14236EFF0E2F14246E7F0E36
:1023C8003014256E2250231024102510D8B4EFEFB6
:1023D80011F0F1EF11F0F5EF11F0010E326EFEEF92
:1023E80011F01AA0FAEF11F0FCEF11F0FEEF11F066
:1023F800F1EF11F03250D8B404EF12F006EF12F0FA
:102408002AEF12F0010E1A26000E1B221C221D2292
:102418001DA011EF12F013EF12F02AEF12F01AC0FC
:1024280022F01BC023F01CC024F01DC025F0253469
:10243800253224322332223222C01AF023C01BF064
:1024480024C01CF025C01DF02B4A2C2A2CBE35EFC9
:1024580012F02C5008E12B28D8A035EF12F037EFF6
:1024680012F042EF12F0000E2C6E2B68000E1A6E5E
:10247800000E1B6E000E1C6E000E1D6E2CBE4FEF64
:1024880012F02C5006E12B04D8B04DEF12F04FEFAC
:1024980012F05DEF12F0000E2C6E000E2B6E000E87
:1024A8001A6E000E1B6E000E1C6E000E1D6E000EC6
:1024B8002A6E2BC031F031A064EF12F066EF12F0F3
:1024C80069EF12F01C8E6AEF12F01C9ED890313022
:1024D8001D6E20EF11F01200096E0950D8B477EF85
:1024E80012F079EF12F09BEF12F004BE80EF12F0B9
:1024F8007EEF12F09BEF12F001C005F002C006F06B
:1025080003C007F004C008F0051E061E071E081EBB
:10251800052A000E06220722082205C00BF006C075
:102528000CF007C00DF008C00EF0A3EF12F001C0C8
:102538000BF002C00CF003C00DF004C00EF0015007
:10254800021003100410D8A4ACEF12F0AEEF12F092
:10255800B8EF12F0000E016E000E026E000E036E50
:10256800000E046E49EF13F0960E0A6EC2EF12F0D9
:102578000A2AD8900E320D320C320B32000E0B1490
:10258800056E000E0C14066E000E0D14076EFE0E7E
:102598000E14086E0550061007100810D8A4D7EFBF
:1025A80012F0D9EF12F0BCEF12F0E7EF12F00A2A9E
:1025B800010E0B26000E0C220D220E22D8900E3290
:1025C8000D320C320B32000E0B14056E000E0C147B
:1025D800066E000E0D14076EFF0E0E14086E0550E1
:1025E800061007100810D8A4FCEF12F0FEEF12F046
:1025F800DBEF12F006EF13F00A06D8900B360C3614
:102608000D360E360DBE0BEF13F00DEF13F015EF70
:1026180013F0020E0A6013EF13F015EF13F000EF3A
:1026280013F00AB01AEF13F01CEF13F01DEF13F0BC
:102638000D9ED8900A320AC005F0066A076A086A31
:1026480005C008F0076A066A056A05500B120650AD
:102658000C1207500D1208500E120950D8B437EF5B
:1026680013F039EF13F041EF13F004BE40EF13F00D
:102678003EEF13F041EF13F00E8E0BC001F00CC0CB
:1026880002F00DC003F00EC004F012000FC001F0FC
:1026980010C002F011C003F012C004F0DEEC14F018
:1026A80001500210D8A45BEF13F05DEF13F067EF51
:1026B80013F013C00FF014C010F015C011F016C0BD
:1026C80012F0D8EF13F013C001F014C002F015C0D7
:1026D80003F016C004F0DEEC14F001500210D8A488
:1026E80078EF13F07AEF13F084EF13F00FC00FF0C8
:1026F80010C010F011C011F012C012F0D8EF13F092
:102708000FC001F010C002F011C003F012C004F0B5
:1027180004EC17F001C017F002C018F013C001F064
:1027280014C002F015C003F016C004F004EC17F052
:102738000150171809E102501818D8B4A6EF13F081
:10274800A8EF13F0BDEF13F00FC001F010C002F0B6
:1027580011C003F012C004F004EC17F0015002108D
:10276800D8A4B9EF13F0BBEF13F07AEF13F05DEFD5
:1027780013F00FC001F010C002F011C003F012C036
:1027880004F013C005F014C006F015C007F016C019
:1027980008F05CEC14F0D8A0D4EF13F0D6EF13F0E7
:1027A8007AEF13F05DEF13F01200453446344C6EA7
:1027B8004C50D8A4E2EF13F0E4EF13F0EEEF13F06F
:1027C800000E436E000E446E000E456E000E466EFF
:1027D8005BEF14F043C047F044C048F045C049F0EF
:1027E80046C04AF0200EFEEF13F0D8904A32493224
:1027F80048324732E82EF9EF13F047504B6E458EBA
:10280800FF0E4316FF0E4416FF0E4516000E461621
:10281800960E4C5E4CBE15EF14F013EF14F02BEF30
:1028280014F04C50800A970FD8B01DEF14F01FEF2A
:1028380014F021EF14F0E4EF13F0D890463245324B
:10284800443243324C3E21EF14F043EF14F01F0E94
:102858004C6431EF14F033EF14F03BEF14F0E4EF75
:1028680013F0D89043364436453646364C064C501D
:10287800D8A441EF14F043EF14F035EF14F04B50A7
:10288800D8B449EF14F04BEF14F053EF14F0461E90
:10289800451E441E436C000E44224522462243C076
:1028A80043F044C044F045C045F046C046F012002D
:1028B800000E0114096E000E02140A6E800E031435
:1028C8000B6E7F0E04140C6E09500A100B100C10BE
:1028D800D8A471EF14F073EF14F07BEF14F0000E2E
:1028E800016E000E026E000E036E000E046E000EE6
:1028F8000514096E000E06140A6E800E07140B6E7E
:102908007F0E08140C6E09500A100B100C10D8A476
:1029180090EF14F092EF14F09AEF14F0000E056E99
:10292800000E066E000E076E000E086E04AE9FEFD6
:1029380014F0A1EF14F0AAEF14F0016C021ED8B045
:10294800022A031ED8B0032A800E045608AEAFEF41
:1029580014F0B1EF14F0BAEF14F0056C061ED8B0FD
:10296800062A071ED8B0072A800E0856000E011A3C
:10297800000E021A000E031A800E041A000E051A21
:10298800000E061A000E071A800E081A0550015C80
:10299800065002580750035808500458D8B0D7EFCB
:1029A80014F0D9EF14F0DCEF14F0D890DDEF14F048
:1029B800D88012009DC00BF09EC00CF09FC00DF097
:1029C800A0C00EF001C00BF002C00CF003C00DF067
:1029D80004C00EF00BC005F00CC006F00DC007F0E7
:1029E8000EC008F0180EFEEF14F0D8900832073227
:1029F80006320532E82EF9EF14F00550096E0A6A1E
:102A080009500A10D8A40BEF15F00DEF15F02DEFB3
:102A180015F0D8900B34056E0C34066E0D34076E25
:102A28000E34086E0550061007100810D8A41FEFC2
:102A380015F021EF15F027EF15F0000E026E020ECB
:102A4800016E5CEF15F0000E026E030E016E5CEF76
:102A580015F009280A10D8A434EF15F036EF15F050
:102A680058EF15F00BC005F00CC006F00DC007F0CC
:102A78000EC008F0090ED890053606360736083617
:102A8800E82E3FEF15F00550061007100810D8B4CF
:102A980050EF15F053EF15F0010E54EF15F0000E3E
:102AA800016E026A5CEF15F0000E026E040E016EF4
:102AB8001200000E0114096E000E02140A6E800E38
:102AC80003140B6E7F0E04140C6E09500A100B10C1
:102AD8000C10D8A472EF15F074EF15F07CEF15F018
:102AE800000E016E000E026E000E036E000E046EE4
:102AF800000E0514096E000E06140A6E800E0714E7
:102B08000B6E7F0E08140C6E09500A100B100C1077
:102B1800D8A491EF15F093EF15F09BEF15F0000E88
:102B2800056E000E066E000E076E000E086E05504C
:102B380001180FE1065002180CE10750031809E1CB
:102B480008500418D8B4ABEF15F0ADEF15F0B0EF9E
:102B580015F0D890B1EF15F0D8801200000E956EE0
:102B6800000E8C6EA5EC16F0010E046E010E72ECD0
:102B780016F0F4EC17F0010E096E9AEC17F0800EBF
:102B8800536E250E546E000E556E000E566E010ED5
:102B980004EC04F0A50E066E000E086E050E076E16
:102BA80053EC17F0000E026E610E016E2CEC17F05C
:102BB800000E5C6E000E5B6E5B50020DF350A50FAD
:102BC800D96EDA6ADF50FBEC17F05B4A5C2A5CBE10
:102BD800F7EF15F05C5009E1050E5B5CD8A0F7EF44
:102BE80015F0F9EF15F0E0EF15F0CEEF15F007EF5F
:102BF80000F0046E04500F0B026E0450F00B036ECD
:102C08008C8403380F0BD6EC16F08C86820E066E79
:102C1800330E056E00000506D8A0060606BE1DEF99
:102C280016F0065008E10504D8A01DEF16F01FEFB6
:102C380016F00EEF16F08C960250D6EC16F08C8635
:102C4800820E086E330E076E00000706D8A008062D
:102C580008BE37EF16F0085008E10704D8A037EF90
:102C680016F039EF16F028EF16F08C9612009EAA8F
:102C780040EF16F042EF16F03BEF16F0ABA447EF2B
:102C880016F049EF16F04FEF16F0AE50010E026E37
:102C9800016871EF16F0ABA254EF16F056EF16F07C
:102CA8005BEF16F0AE50C596C5864AEF16F0ABB08E
:102CB80060EF16F062EF16F067EF16F0AECF03F094
:102CC800046A6CEF16F0000EAE10036E010E046E6F
:102CD80003C005F005C001F0026A1200056E050484
:102CE800D8A479EF16F07BEF16F08CEF16F00450AD
:102CF8007F0F086E08380F0B066E08500F0B076E13
:102D08000650D5EC17F00750D5EC17F0A4EF16F0E5
:102D1800020E0518D8A493EF16F095EF16F0A4EF5D
:102D280016F00450BF0F086E08380F0B066E0850D7
:102D38000F0B076E0650D5EC17F00750D5EC17F0BF
:102D48001200000ED6EC16F0030ED5EC17F00D0E9F
:102D5800046EFC0EE82EFED7042EFCD7030ED5EC2D
:102D680017F01D0E046E910EE82EFED7042EFCD728
:102D78000000030ED5EC17F0020ED5EC17F0020E8A
:102D8800D5EC17F0080ED5EC17F0000ED5EC17F0BF
:102D98000C0ED5EC17F0000ED5EC17F0060ED5EC9E
:102DA80017F01200016E01A0DCEF16F0DEEF16F04E
:102DB800E1EF16F08C88E2EF16F08C9801A2E7EFAD
:102DC80016F0E9EF16F0ECEF16F08C8AEDEF16F03E
:102DD8008C9A01A4F2EF16F0F4EF16F0F7EF16F064
:102DE8008C8CF8EF16F08C9C01A6FDEF16F0FFEF27
:102DF80016F002EF17F08C8E03EF17F08C9E12007E
:102E080099C009F09AC00AF09BC00BF09CC00CF066
:102E180001C009F002C00AF003C00BF004C00CF0B6
:102E280009C005F00AC006F00BC007F00CC008F096
:102E3800200E24EF17F0D8900832073206320532F8
:102E4800E82E1FEF17F005C001F006C002F01200CF
:102E5800ACAC31EF17F033EF17F042EF17F002C0C8
:102E680003F0046A03BE04680330D8B03EEF17F0DD
:102E780041EF17F0AC8042EF17F0AC9001C0ADFF06
:102E88009EA849EF17F04BEF17F044EF17F0ACA2EC
:102E980050EF17F052EF17F04BEF17F01200000E3B
:102EA8000B6E000E0A6E67EF17F03BEC16F00A5037
:102EB800020D0650F324D96EDA6A01C0DEFF02C0A3
:102EC800DDFF0A4A0B2A07500A5C0B50800A096E7C
:102ED8000850800A0958D8A074EF17F076EF17F059
:102EE80059EF17F01200000E471A000E481A000E8C
:102EF800491A800E4A1A43C033F044C034F045C022
:102F080035F046C036F047C037F048C038F049C001
:102F180039F04AC03AF02EEC0CF033C043F034C01C
:102F280044F035C045F036C046F01200000E0C6E75
:102F3800000E0B6EABEF17F009500B240A6E0AC097
:102F4800F6FF0800F550FDEC15F00B4A0C2A095065
:102F58000B240A6E0AC0F6FF0800F5500009D8A431
:102F6800B8EF17F0BAEF17F0A0EF17F01200A1C0F2
:102F78004FF0A2C050F0A3C051F0A4C052F04BC013
:102F88004FF04CC050F04DC051F04EC052F0529E20
:102F98004FC04BF050C04CF051C04DF052C04EF0F5
:102FA8001200036E8C940350D6EC16F08C860B0E30
:102FB800026E620EE82EFED7022EFCD700D08C9649
:102FC800120000EE99F0160EEE6AE806FDE15D903B
:102FD8005D92000EF86E080EF76E0001B2EF15F064
:102FE800000ED5EC17F0010ED5EC17F01200096EA3
:0E2FF8000950FDEC15F0120006005D9211006C
:020000040030CA
:020002001F1EBF
:00000001FF
