:060000000000AEEF04F069
:0B060000004D41535445523A200000C9
:10060C00FFFF026E000E036E8B94000E046EFFFF54
:10061C0002BE13EF03F018EF03F0FFFF016A012A8B
:10062C001AEF03F0FFFF016AFFFF013A8B5001182C
:10063C00EF0B01188B6ED89002360A0EFFFFE82ED6
:10064C00FDD78B860A0EFFFFE82EFDD7D890033618
:10065C0082AA33EF03F036EF03F0FFFF38EF03F01D
:10066C00FFFF0380FFFF8B960A0EFFFFE82EFDD7DE
:10067C00042A070E046445EF03F048EF03F0FFFF74
:10068C000DEF03F0FFFF8B8403501200FFFFFFFF01
:10069C00086E08500F0B026E0850F00B036E8C8422
:1006AC0003380F0B93EC03F08C86820E056E330E21
:1006BC00046EFFFF00000406D8A0050605BE6FEF10
:1006CC0003F0055009E10404D8A06FEF03F072EFBA
:1006DC0003F0FFFF5FEF03F0FFFF8C96025093ECEB
:1006EC0003F08C86820E076E330E066EFFFF000041
:1006FC000606D8A0070607BE8CEF03F0075009E1E9
:10070C000604D8A08CEF03F08FEF03F0FFFF7CEF13
:10071C0003F0FFFF8C961200FFFFFFFF016E01A09C
:10072C009AEF03F09DEF03F0FFFFA1EF03F0FFFF43
:10073C008C88A3EF03F0FFFF8C98FFFF01A2A9EFB9
:10074C0003F0ACEF03F0FFFFB0EF03F0FFFF8C8A78
:10075C00B2EF03F0FFFF8C9AFFFF01A4B8EF03F098
:10076C00BBEF03F0FFFFBFEF03F0FFFF8C8CC1EF7B
:10077C0003F0FFFF8C9CFFFF01A6C7EF03F0CAEF4D
:10078C0003F0FFFFCEEF03F0FFFF8C8ED0EF03F0F2
:10079C00FFFF8C9EFFFF1200FFFFFFFF056E05049D
:1007AC00D8A4DBEF03F0DEEF03F0FFFFF0EF03F074
:1007BC00FFFF04507F0F086E08380F0B066E0850B1
:1007CC000F0B076E06509BEC04F007509BEC04F0EB
:1007DC000BEF04F0FFFF020E0518D8A4F8EF03F09E
:1007EC00FBEF03F0FFFF0BEF04F0FFFF0450BF0F14
:1007FC00086E08380F0B066E08500F0B076E06506C
:10080C009BEC04F007509BEC04F0FFFF1200FFFF81
:10081C00FFFF000E93EC03F0030E9BEC04F00A0EAA
:10082C00046EBE0EFFFFE82EFDD7042EFBD700D0C2
:10083C00030E9BEC04F0160E046E700EFFFFE82EF8
:10084C00FDD7042EFBD700D0030E9BEC04F0020E58
:10085C009BEC04F0020E9BEC04F0080E9BEC04F0F5
:10086C00000E9BEC04F00C0E9BEC04F0000E9BECC9
:10087C0004F0060E9BEC04F01200FFFFFFFF000ECD
:10088C00956E000E8C6E0EEC04F0010E046E010ED3
:10089C00D3EC03F0C1EC04F0010E096E72EC04F021
:1008AC00B8EC04F0B8EC04F0FFFF610E06EC03F0BA
:1008BC00020E06EC03F00E6E0E504DEC03F0140E0F
:1008CC000D6E7D0EFFFFE82EFDD70D2EFBD700D051
:1008DC005AEF04F001EF00F0FFFF000E0C6E000E5B
:1008EC000B6E86EF04F0FFFF09500B240A6E0AC052
:1008FC00F6FF0800FFFFF5504DEC03F00B4A0C2AF5
:10090C00FFFF09500B240A6E0AC0F6FF0800FFFF18
:10091C00F5500009D8A495EF04F098EF04F0FFFF10
:10092C0079EF04F0FFFF1200FFFFFFFF036E8C94C2
:10093C00035093EC03F08C86080E026ECB0EFFFF77
:10094C00E82EFDD7022EFBD700D08C961200FFFFAD
:10095C00116A106A0F6A000EF86E060EF76E00012F
:10096C0044EF04F0FFFF94969498948A94948B84AB
:10097C008B961200FFFFFFFF000E9BEC04F0010EA4
:0A098C009BEC04F01200FFFFFFFFD8
:020000040030CA
:020002000F0EDF
:00000001FF
