:060000000000BAEF04F05D
:1006000000534C4156453A200000FFFF026E000E99
:10061000036EFFFF82B40FEF03F012EF03F0FFFF52
:1006200009EF03F0FFFF000E046EFFFF02BE1BEF99
:1006300003F020EF03F0FFFF016A012A22EF03F02D
:10064000FFFF016AFFFF013A01468B500118DF0BE3
:1006500001188B6ED8900236FFFF82A632EF03F0AE
:1006600035EF03F0FFFF2CEF03F0FFFF020EFFFF5B
:10067000E82EFDD700D0D890033682A842EF03F0D1
:1006800045EF03F0FFFF47EF03F0FFFF0380FFFF9D
:1006900082B64DEF03F050EF03F0FFFF47EF03F09A
:1006A000FFFF020EFFFFE82EFDD700D0042A070E41
:1006B00004645DEF03F060EF03F0FFFF15EF03F05C
:1006C000FFFF03501200FFFFFFFF086E08500F0BE3
:1006D000026E0850F00B036E8C8403380F0BAAECEB
:1006E00003F08C86820E056E330E046EFFFF000051
:1006F0000406D8A0050605BE86EF03F0055009E103
:100700000404D8A086EF03F089EF03F0FFFF76EF33
:1007100003F0FFFF8C960250AAEC03F08C86820E49
:10072000076E330E066EFFFF00000606D8A0070610
:1007300007BEA3EF03F0075009E10604D8A0A3EF1A
:1007400003F0A6EF03F0FFFF93EF03F0FFFF8C969B
:100750001200FFFFFFFF016E01A0B1EF03F0B4EF45
:1007600003F0FFFFB8EF03F0FFFF8C88BAEF03F050
:10077000FFFF8C98FFFF01A2C0EF03F0C3EF03F06F
:10078000FFFFC7EF03F0FFFF8C8AC9EF03F0FFFF05
:100790008C9AFFFF01A4CFEF03F0D2EF03F0FFFF2D
:1007A000D6EF03F0FFFF8C8CD8EF03F0FFFF8C9C9B
:1007B000FFFF01A6DEEF03F0E1EF03F0FFFFE5EF3F
:1007C00003F0FFFF8C8EE7EF03F0FFFF8C9EFFFF2F
:1007D0001200FFFFFFFF056E0504D8A4F2EF03F03F
:1007E000F5EF03F0FFFF07EF04F0FFFF04507F0F6A
:1007F000086E08380F0B066E08500F0B076E065078
:10080000A7EC04F00750A7EC04F022EF04F0FFFF80
:10081000020E0518D8A40FEF04F012EF04F0FFFF4A
:1008200022EF04F0FFFF0450BF0F086E08380F0BD3
:10083000066E08500F0B076E0650A7EC04F0075029
:10084000A7EC04F0FFFF1200FFFFFFFF000EAAEC71
:1008500003F0030EA7EC04F00A0E046EBE0EFFFFB9
:10086000E82EFDD7042EFBD700D0030EA7EC04F032
:10087000160E046E700EFFFFE82EFDD7042EFBD778
:1008800000D0030EA7EC04F0020EA7EC04F0020E59
:10089000A7EC04F0080EA7EC04F0000EA7EC04F09F
:1008A0000C0EA7EC04F0000EA7EC04F0060EA7EC6B
:1008B00004F01200FFFFFFFF000E0C6E000E0B6E27
:1008C0006FEF04F0FFFF09500B240A6E0AC0F6FF19
:1008D0000800FFFFF55064EC03F00B4A0C2AFFFF01
:1008E00009500B240A6E0AC0F6FF0800FFFFF550FE
:1008F0000009D8A47EEF04F081EF04F0FFFF62EF5F
:1009000004F0FFFF1200FFFFFFFF000E956E000EC8
:100910008C6E25EC04F0010E046E010EEAEC03F07F
:10092000C4EC04F0010E096E5BEC04F0CDEC04F0B5
:10093000FFFF020E05EC03F00D6E610E05EC03F0F7
:100940000D5064EC03F098EF04F001EF00F0FFFFAE
:10095000036E8C940350AAEC03F08C86080E026E92
:10096000CB0EFFFFE82EFDD7022EFBD700D08C96D2
:100970001200FFFF106A0F6A0E6A000EF86E060E74
:10098000F76E000184EF04F0FFFF000EA7EC04F007
:10099000010EA7EC04F01200FFFFFFFF948694887D
:0C09A000949A94868B9A1200FFFFFFFFD0
:020000040030CA
:020002000F0EDF
:00000001FF
