:0400000013EF00F00A
:100018005E80E0CF01F001C0E0FF5E901000BBEF12
:0200280017F0CF
:070800000054583A200000EB
:100808000001706F000E0001916F240E926FF40EBC
:10081800936F4A0E946F54C002F055C003F056C04F
:1008280004F057C005F0000E70EC12F002C095F00D
:1008380003C096F004C097F005C098F0000E386E1B
:10084800000E396E800E3A6EBF0E3B6E000E066EBD
:10085800000E076E800E086E420E096E95C002F0FB
:1008680096C003F097C004F098C005F08EEC0EF027
:1008780002C01FF003C020F004C021F005C022F020
:1008880091C01BF092C01CF093C01DF094C01EF0E4
:10089800A3EC10F01BC034F01CC035F01DC036F0BE
:1008A8001EC037F02EEC0CF034C044F035C045F0D3
:1008B80036C046F037C047F0D9EC13F044C075F0A5
:1008C80045C076F046C077F047C078F0000E386E25
:1008D800000E396E800E3A6EBF0E3B6E000E066E2D
:1008E800000E076E800E086E410E096E95C002F06C
:1008F80096C003F097C004F098C005F08EEC0EF097
:1009080002C01FF003C020F004C021F005C022F08F
:1009180091C01BF092C01CF093C01DF094C01EF053
:10092800A3EC10F01BC034F01CC035F01DC036F02D
:100938001EC037F02EEC0CF034C044F035C045F042
:1009480036C046F037C047F0D9EC13F044C085F004
:1009580045C086F046C087F047C088F0000E386E64
:10096800000E396E800E3A6EBF0E3B6E000E066E9C
:10097800000E076E800E086E400E096E95C002F0DC
:1009880096C003F097C004F098C005F08EEC0EF006
:1009980002C01FF003C020F004C021F005C022F0FF
:1009A80091C01BF092C01CF093C01DF094C01EF0C3
:1009B800A3EC10F01BC034F01CC035F01DC036F09D
:1009C8001EC037F02EEC0CF034C044F035C045F0B2
:1009D80036C046F037C047F0D9EC13F044C089F070
:1009E80045C08AF046C08BF047C08CF0000178BF44
:1009F80008EF05F078517711761108E17505D8A050
:100A080008EF05F00AEF05F06AEF08F095C048F026
:100A180096C049F097C04AF098C04BF075C058F09E
:100A280076C059F077C05AF078C05BF0060ED890BF
:100A3800583659365A365B36E82E1BEF05F0400E0D
:100A48005824026E000E5920036E000E5A20046EC0
:100A5800000E5B20056E010E70EC12F002C01FF054
:100A680003C020F004C021F005C022F091C01BF0A3
:100A780092C01CF093C01DF094C01EF0A3EC10F0BF
:100A88001BC044F01CC045F01DC046F01EC047F016
:100A980077EC17F044C08DF045C08EF046C08FF05B
:100AA80047C090F08DC01BF08EC01CF08FC01DF0A9
:100AB80090C01EF095C01FF096C020F097C021F09E
:100AC80098C022F0A3EC10F01BC04CF01CC04DF0F5
:100AD8001DC04EF01EC04FF0DAEC17F04CC06CF0A1
:100AE8004DC06DF04EC06EF04FC06FF095C048F02D
:100AF80096C049F097C04AF098C04BF075C058F0BE
:100B080076C059F077C05AF078C05BF0060ED890DE
:100B1800583659365A365B36E82E8BEF05F0800E7C
:100B28005824026E000E5920036E000E5A20046EDF
:100B3800000E5B20056E010E70EC12F002C01FF073
:100B480003C020F004C021F005C022F091C01BF0C2
:100B580092C01CF093C01DF094C01EF0A3EC10F0DE
:100B68001BC044F01CC045F01DC046F01EC047F035
:100B780077EC17F044C08DF045C08EF046C08FF07A
:100B880047C090F08DC01BF08EC01CF08FC01DF0C8
:100B980090C01EF095C01FF096C020F097C021F0BD
:100BA80098C022F0A3EC10F01BC04CF01CC04DF014
:100BB8001DC04EF01EC04FF0DAEC17F04CC064F0C8
:100BC8004DC065F04EC066F04FC067F064C002F0DB
:100BD80065C003F066C004F067C005F06CC006F09D
:100BE8006DC007F06EC008F06FC009F05CEC14F03F
:100BF800D8B001EF06F003EF06F018EF06F064C076
:100C08006CF065C06DF066C06EF067C06FF0010EE5
:100C180000017525756F000E7621766F000E77211D
:100C2800776F000E7821786F95C048F096C049F02C
:100C380097C04AF098C04BF085C058F086C059F06C
:100C480087C05AF088C05BF0040ED89058365936E1
:100C58005A365B36E82E29EF06F0100E5824026E3D
:100C6800000E5920036E000E5A20046E000E5B2001
:100C7800056E010E70EC12F002C01FF003C020F0E8
:100C880004C021F005C022F091C01BF092C01CF0F6
:100C980093C01DF094C01EF0A3EC10F01BC044F0EC
:100CA8001CC045F01DC046F01EC047F077EC17F099
:100CB80044C08DF045C08EF046C08FF047C090F01C
:100CC8008DC01BF08EC01CF08FC01DF090C01EF0B0
:100CD80095C01FF096C020F097C021F098C022F070
:100CE800A3EC10F01BC04CF01CC04DF01DC04EF022
:100CF8001EC04FF0DAEC17F04CC079F04DC07AF016
:100D08004EC07BF04FC07CF095C048F096C049F0CB
:100D180097C04AF098C04BF085C058F086C059F08B
:100D280087C05AF088C05BF0040ED8905836593600
:100D38005A365B36E82E99EF06F0200E5824026EDC
:100D4800000E5920036E000E5A20046E000E5B2020
:100D5800056E010E70EC12F002C01FF003C020F007
:100D680004C021F005C022F091C01BF092C01CF015
:100D780093C01DF094C01EF0A3EC10F01BC044F00B
:100D88001CC045F01DC046F01EC047F077EC17F0B8
:100D980044C08DF045C08EF046C08FF047C090F03B
:100DA8008DC01BF08EC01CF08FC01DF090C01EF0CF
:100DB80095C01FF096C020F097C021F098C022F08F
:100DC800A3EC10F01BC04CF01CC04DF01DC04EF041
:100DD8001EC04FF0DAEC17F04CC071F04DC072F045
:100DE8004EC073F04FC074F071C002F072C003F0CF
:100DF80073C004F074C005F079C006F07AC007F03B
:100E08007BC008F07CC009F05CEC14F0D8B00FEFA0
:100E180007F011EF07F026EF07F071C079F072C004
:100E28007AF073C07BF074C07CF0010E0001852558
:100E3800856F000E8621866F000E8721876F000E52
:100E48008821886F95C048F096C049F097C04AF04D
:100E580098C04BF089C058F08AC059F08BC05AF03E
:100E68008CC05BF0020ED890583659365A365B362D
:100E7800E82E37EF07F0040E5824026E000E5920B2
:100E8800036E000E5A20046E000E5B20056E010EE4
:100E980070EC12F002C01FF003C020F004C021F073
:100EA80005C022F091C01BF092C01CF093C01DF049
:100EB80094C01EF0A3EC10F01BC044F01CC045F019
:100EC8001DC046F01EC047F077EC17F044C08DF007
:100ED80045C08EF046C08FF047C090F08DC01BF023
:100EE8008EC01CF08FC01DF090C01EF095C01FF082
:100EF80096C020F097C021F098C022F0A3EC10F023
:100F08001BC04CF01CC04DF01DC04EF01EC04FF071
:100F1800DAEC17F04CC081F04DC082F04EC083F07F
:100F28004FC084F095C048F096C049F097C04AF089
:100F380098C04BF089C058F08AC059F08BC05AF05D
:100F48008CC05BF0020ED890583659365A365B364C
:100F5800E82EA7EF07F0080E5824026E000E59205D
:100F6800036E000E5A20046E000E5B20056E010E03
:100F780070EC12F002C01FF003C020F004C021F092
:100F880005C022F091C01BF092C01CF093C01DF068
:100F980094C01EF0A3EC10F01BC044F01CC045F038
:100FA8001DC046F01EC047F077EC17F044C08DF026
:100FB80045C08EF046C08FF047C090F08DC01BF042
:100FC8008EC01CF08FC01DF090C01EF095C01FF0A1
:100FD80096C020F097C021F098C022F0A3EC10F042
:100FE8001BC04CF01CC04DF01DC04EF01EC04FF091
:100FF800DAEC17F04CC07DF04DC07EF04EC07FF0AB
:101008004FC080F07DC002F07EC003F07FC004F0C6
:1010180080C005F081C006F082C007F083C008F0E8
:1010280084C009F05CEC14F0D8B01DEF08F01FEF95
:1010380008F034EF08F07DC081F07EC082F07FC0F8
:1010480083F080C084F0010E00018925896F000EAD
:101058008A218A6F000E8B218B6F000E8C218C6F7A
:1010680079C010F07AC011F07BC012F07CC013F088
:1010780081C014F082C015F083C016F084C017F048
:101088004AEC13F010C060F011C061F012C062F0B9
:1010980013C063F06CC010F06DC011F06EC012F098
:1010A8006FC013F060C014F061C015F062C016F094
:1010B80063C017F04AEC13F010C068F011C069F073
:1010C80012C06AF013C06BF0AFEF0BF088BF77EF78
:1010D80008F088518711861108E18505D8A077EFB7
:1010E80008F079EF08F097EF0AF095C048F096C03D
:1010F80049F097C04AF098C04BF085C058F086C0B8
:1011080059F087C05AF088C05BF0040ED890583662
:1011180059365A365B36E82E8AEF08F0100E5824F6
:10112800026E000E5920036E000E5A20046E000E47
:101138005B20056E010E70EC12F002C01FF003C0B8
:1011480020F004C021F005C022F091C01BF092C02D
:101158001CF093C01DF094C01EF0A3EC10F01BC04F
:1011680044F01CC045F01DC046F01EC047F077ECA7
:1011780017F044C08DF045C08EF046C08FF047C0D0
:1011880090F08DC01BF08EC01CF08FC01DF090C079
:101198001EF095C01FF096C020F097C021F098C0AF
:1011A80022F0A3EC10F01BC04CF01CC04DF01DC089
:1011B8004EF01EC04FF0DAEC17F04CC079F04DC07D
:1011C8007AF04EC07BF04FC07CF095C048F096C0D6
:1011D80049F097C04AF098C04BF085C058F086C0D7
:1011E80059F087C05AF088C05BF0040ED890583682
:1011F80059365A365B36E82EFAEF08F0200E582496
:10120800026E000E5920036E000E5A20046E000E66
:101218005B20056E010E70EC12F002C01FF003C0D7
:1012280020F004C021F005C022F091C01BF092C04C
:101238001CF093C01DF094C01EF0A3EC10F01BC06E
:1012480044F01CC045F01DC046F01EC047F077ECC6
:1012580017F044C08DF045C08EF046C08FF047C0EF
:1012680090F08DC01BF08EC01CF08FC01DF090C098
:101278001EF095C01FF096C020F097C021F098C0CE
:1012880022F0A3EC10F01BC04CF01CC04DF01DC0A8
:101298004EF01EC04FF0DAEC17F04CC071F04DC0A4
:1012A80072F04EC073F04FC074F071C002F072C09B
:1012B80003F073C004F074C005F079C006F07AC07A
:1012C80007F07BC008F07CC009F05CEC14F0D8B0E3
:1012D80070EF09F072EF09F07AEF09F071C079F058
:1012E80072C07AF073C07BF074C07CF095C048F08F
:1012F80096C049F097C04AF098C04BF089C058F0A2
:101308008AC059F08BC05AF08CC05BF0020ED8909E
:10131800583659365A365B36E82E8BEF09F0040EEC
:101328005824026E000E5920036E000E5A20046ED7
:10133800000E5B20056E010E70EC12F002C01FF06B
:1013480003C020F004C021F005C022F091C01BF0BA
:1013580092C01CF093C01DF094C01EF0A3EC10F0D6
:101368001BC044F01CC045F01DC046F01EC047F02D
:1013780077EC17F044C08DF045C08EF046C08FF072
:1013880047C090F08DC01BF08EC01CF08FC01DF0C0
:1013980090C01EF095C01FF096C020F097C021F0B5
:1013A80098C022F0A3EC10F01BC04CF01CC04DF00C
:1013B8001DC04EF01EC04FF0DAEC17F04CC081F0A3
:1013C8004DC082F04EC083F04FC084F095C048F005
:1013D80096C049F097C04AF098C04BF089C058F0C1
:1013E8008AC059F08BC05AF08CC05BF0020ED890BE
:1013F800583659365A365B36E82EFBEF09F0080E98
:101408005824026E000E5920036E000E5A20046EF6
:10141800000E5B20056E010E70EC12F002C01FF08A
:1014280003C020F004C021F005C022F091C01BF0D9
:1014380092C01CF093C01DF094C01EF0A3EC10F0F5
:101448001BC044F01CC045F01DC046F01EC047F04C
:1014580077EC17F044C08DF045C08EF046C08FF091
:1014680047C090F08DC01BF08EC01CF08FC01DF0DF
:1014780090C01EF095C01FF096C020F097C021F0D4
:1014880098C022F0A3EC10F01BC04CF01CC04DF02B
:101498001DC04EF01EC04FF0DAEC17F04CC07DF0C6
:1014A8004DC07EF04EC07FF04FC080F07DC002F08E
:1014B8007EC003F07FC004F080C005F081C006F054
:1014C80082C007F083C008F084C009F05CEC14F017
:1014D800D8B071EF0AF073EF0AF07BEF0AF07DC025
:1014E80081F07EC082F07FC083F080C084F079C034
:1014F80010F07AC011F07BC012F07CC013F081C0EC
:1015080014F082C015F083C016F084C017F04AECBE
:1015180013F010C068F011C069F012C06AF013C06F
:101528006BF0AFEF0BF08CBFA4EF0AF08C518B116E
:101538008A1108E18905D8A0A4EF0AF0A6EF0AF0FD
:101548002DEF0CF095C048F096C049F097C04AF0CE
:1015580098C04BF089C058F08AC059F08BC05AF037
:101568008CC05BF0020ED890583659365A365B3626
:10157800E82EB7EF0AF0040E5824026E000E592028
:10158800036E000E5A20046E000E5B20056E010EDD
:1015980070EC12F002C01FF003C020F004C021F06C
:1015A80005C022F091C01BF092C01CF093C01DF042
:1015B80094C01EF0A3EC10F01BC044F01CC045F012
:1015C8001DC046F01EC047F077EC17F044C08DF000
:1015D80045C08EF046C08FF047C090F08DC01BF01C
:1015E8008EC01CF08FC01DF090C01EF095C01FF07B
:1015F80096C020F097C021F098C022F0A3EC10F01C
:101608001BC04CF01CC04DF01DC04EF01EC04FF06A
:10161800DAEC17F04CC081F04DC082F04EC083F078
:101628004FC084F095C048F096C049F097C04AF082
:1016380098C04BF089C058F08AC059F08BC05AF056
:101648008CC05BF0020ED890583659365A365B3645
:10165800E82E27EF0BF0080E5824026E000E5920D2
:10166800036E000E5A20046E000E5B20056E010EFC
:1016780070EC12F002C01FF003C020F004C021F08B
:1016880005C022F091C01BF092C01CF093C01DF061
:1016980094C01EF0A3EC10F01BC044F01CC045F031
:1016A8001DC046F01EC047F077EC17F044C08DF01F
:1016B80045C08EF046C08FF047C090F08DC01BF03B
:1016C8008EC01CF08FC01DF090C01EF095C01FF09A
:1016D80096C020F097C021F098C022F0A3EC10F03B
:1016E8001BC04CF01CC04DF01DC04EF01EC04FF08A
:1016F800DAEC17F04CC07DF04DC07EF04EC07FF0A4
:101708004FC080F07DC002F07EC003F07FC004F0BF
:1017180080C005F081C006F082C007F083C008F0E1
:1017280084C009F05CEC14F0D8B09DEF0BF09FEF8B
:101738000BF0A7EF0BF07DC081F07EC082F07FC078
:1017480083F080C084F081C068F082C069F083C0F3
:101758006AF084C06BF068C002F069C003F06AC028
:1017680004F06BC005F06CC006F06DC007F06EC0E9
:1017780008F06FC009F05DEC15F0D8A0C6EF0BF0CB
:10178800C8EF0BF0CEEF0BF0AC94B89675C0AFFF76
:10179800F5EF0BF068C002F069C003F06AC004F00E
:1017A8006BC005F079C006F07AC007F07BC008F07E
:1017B8007CC009F05DEC15F0D8A0E5EF0BF0E7EF81
:1017C8000BF0EFEF0BF0AC84B89685C0AFFF86C086
:1017D800B0FFF5EF0BF0AC84B88689C0AFFF8AC0C4
:1017E800B0FF948C948E000170A3FDEF0BF0FFEF17
:1017F8000BF003EF0CF0B888B88A05EF0CF0B89A34
:10180800B89870A50AEF0CF00CEF0CF00FEF0CF085
:101818009D8A11EF0CF09D9A9D9870A716EF0CF019
:1018280018EF0CF01CEF0CF0AC8CAB8C1EEF0CF02E
:10183800AC9CAB9C70A123EF0CF025EF0CF028EFCB
:101848000CF0AC9829EF0CF0AC88AB88AB8AAC8A6A
:10185800AB8E12003750800B406E37503724426EE3
:1018680036AE39EF0CF03BEF0CF03CEF0CF0428059
:101878004250D8B442EF0CF044EF0CF059EF0CF0A2
:101888004228D8A44AEF0CF04CEF0CF054EF0CF0BF
:10189800000E346E000E356E000E366E000E376E7A
:1018A800368E000E376E61EF0CF0000E346E000EAF
:1018B800356E000E366E000E376E3B50800B416E53
:1018C80040504118D8B46BEF0CF06DEF0CF06EEF90
:1018D8000CF0408C3B503B24416E3AAE76EF0CF056
:1018E80078EF0CF079EF0CF041804150D8B47FEFDD
:1018F8000CF081EF0CF096EF0CF04128D8A487EF9C
:101908000CF089EF0CF091EF0CF0000E386E000E21
:10191800396E000E3A6E000E3B6E3A8E000E3B6E2C
:101928009EEF0CF0000E386E000E396E000E3A6E07
:10193800000E3B6E4250415CD8B0A5EF0CF0A7EF0B
:101948000CF0CEEF0CF040ACACEF0CF0AEEF0CF0BE
:10195800B0EF0CF0800E401A42C043F041C042F094
:1019680043C041F034C043F038C034F043C038F0CD
:1019780035C043F039C035F043C039F036C043F0C4
:101988003AC036F043C03AF037C043F03BC037F0B6
:1019980043C03BF0000E436E425041C03CF03D6AEC
:1019A8003C5E000E3D5A3DBEE3EF0CF03D5009E1B0
:1019B8001A0E3C5CD8A0E3EF0CF0E5EF0CF01CEF3E
:1019C8000DF03450351036103710D8A4EEEF0CF067
:1019D800F1EF0CF0010EF2EF0CF0000E436E000E6A
:1019E800346E000E356E000E366E000E376E41C036
:1019F80042F025EF0DF043A004EF0DF006EF0DF0D7
:101A08000CEF0DF0D89043300109436E0EEF0DF046
:101A1800D890433234A013EF0DF015EF0DF016EF08
:101A28000DF0438E37343732363235323432422A6B
:101A38004150425CD8A023EF0DF025EF0DF0FFEFE9
:101A48000CF040BC2AEF0DF02CEF0DF06CEF0DF010
:101A58004250D8A432EF0DF034EF0DF03EEF0DF008
:101A6800000E346E000E356E000E366E000E376EA8
:101A78008DEF0EF038503426395035223A50362240
:101A88003B50372237A04BEF0DF04DEF0DF0F9EF3B
:101A98000DF043A052EF0DF054EF0DF05AEF0DF09A
:101AA800D89043300109436E5CEF0DF0D890433273
:101AB80034A061EF0DF063EF0DF064EF0DF0438E8D
:101AC80037343732363235323432422AF9EF0DF0B4
:101AD8003850345C395035583A5036583750800AA7
:101AE8003C6E3B50800A3C58D8B07DEF0DF07FEF3C
:101AF8000DF0AAEF0DF03450385C3C6E3550395873
:101B08003D6E36503A583E6E37503B583F6EFF0E8A
:101B18003C24346EFF0E3D20356EFF0E3E20366E9F
:101B2800FF0E3F20376E800E401A436C4350D8A4F6
:101B3800A0EF0DF0A2EF0DF0B2EF0DF0010E34267C
:101B4800000E352236223722B2EF0DF03850345EBF
:101B58003950355A3A50365A3B50375A3450351066
:101B680036103710D8A4BBEF0DF0BDEF0DF0F2EF33
:101B78000DF04350D8A4C3EF0DF0C5EF0DF0F2EF10
:101B88000DF0000E346E000E356E000E366E000E2F
:101B9800376E8DEF0EF0D890343635363636373608
:101BA80043AED9EF0DF0DBEF0DF0DCEF0DF0348034
:101BB80043A0E1EF0DF0E3EF0DF0E7EF0DF0D88073
:101BC8004336E9EF0DF0D89043364250D8B4EFEFE2
:101BD8000DF0F1EF0DF0F2EF0DF0420636AEF7EF33
:101BE8000DF0F9EF0DF0CFEF0DF0000E416E43AEA2
:101BF80000EF0EF002EF0EF01AEF0EF043C03CF0CB
:101C08007F0E3C16D8B40BEF0EF00DEF0EF011EF6F
:101C18000EF0010E416E1AEF0EF034A016EF0EF022
:101C280018EF0EF01AEF0EF00DEF0EF04150D8B489
:101C380020EF0EF022EF0EF04DEF0EF0010E3426DD
:101C4800000E35223622372237A02DEF0EF02FEF67
:101C58000EF04DEF0EF034C03CF035C03DF036C00C
:101C68003EF037C03FF03F343F323E323D323C32E7
:101C78003CC034F03DC035F03EC036F03FC037F0D0
:101C88004228D8B44AEF0EF04CEF0EF04DEF0EF0AC
:101C9800422A4228D8B453EF0EF055EF0EF05DEF0C
:101CA8000EF04250D8A45BEF0EF05DEF0EF06FEF30
:101CB8000EF0000E346E000E356E000E366E000EFD
:101CC800376E4250D8A46BEF0EF06DEF0EF06FEF49
:101CD8000EF0000E406E42A074EF0EF076EF0EF09C
:101CE80079EF0EF0368E7AEF0EF0369ED8904230AD
:101CF800376E40AE82EF0EF084EF0EF085EF0EF0F7
:101D0800378E34C034F035C035F036C036F037C0C1
:101D180037F012000550800B0E6E05500524146E26
:101D280004AE99EF0EF09BEF0EF09CEF0EF01480CE
:101D38001450D8B4A2EF0EF0A4EF0EF0B7EF0EF0E7
:101D48001428D8A4AAEF0EF0ACEF0EF0B4EF0EF002
:101D5800000E026E000E036E000E046E000E056E7D
:101D6800048EBFEF0EF0000E026E000E036E000E22
:101D7800046E000E056E0950800B0E1A09500924D6
:101D8800136E08AECAEF0EF0CCEF0EF0CDEF0EF0EA
:101D980013801350D8B4D3EF0EF0D5EF0EF0E8EF60
:101DA8000EF01328D8A4DBEF0EF0DDEF0EF0E5EF10
:101DB8000EF0000E066E000E076E000E086E000E86
:101DC800096E088EF0EF0EF0000E066E000E076E1C
:101DD800000E086E000E096E1350D8B4F6EF0EF020
:101DE800F8EF0EF000EF0FF01450D8A4FEEF0EF04D
:101DF80000EF0FF00AEF0FF0000E026E000E036EF8
:101E0800000E046E000E056EA2EF10F008500202DC
:101E1800F3CF19F0F4CF1AF019500F6E106A116A47
:101E2800126A1A50156E166A176A186A0750030262
:101E3800F3CF19F0F4CF1AF019500F26000E102224
:101E4800112212221A501526000E162217221822C5
:101E580006500402F3CF19F0F4CF1AF019500F26E8
:101E6800000E1022112212221A501526000E1622D8
:101E78001722182211C012F010C011F00FC010F074
:101E88000F6A06500302F3CF19F0F4CF1AF0195075
:101E98000F261A501022000E1122000E122207508F
:101EA8000202F3CF19F0F4CF1AF019500F261A5086
:101EB8001022000E1122000E122211C012F010C0C2
:101EC80011F00FC010F00F6A06500202F3CF19F09C
:101ED800F4CF1AF019500F261A501022000E1122B2
:101EE800000E122208500302F3CF19F0F4CF1AF0B3
:101EF800195015261A501622000E1722000E182205
:101F080007500402F3CF19F0F4CF1AF01950152630
:101F18001A501622000E1722000E1822085004022A
:101F2800F3CF19F0F4CF1AF019500A6E1A500B6E4D
:101F38000C6A0D6A0CC00DF00BC00CF00AC00BF057
:101F48000A6A0A5015260B5016220C5017220D50FB
:101F580018220FC00AF010C00BF011C00CF012C00C
:101F68000DF0190EBDEF0FF0D8900D320C320B3278
:101F78000A32E82EB8EF0FF00A5015260B50162239
:101F88000C5017220D50182211C012F010C011F079
:101F98000FC010F00F6A135014C00AF00B6A0A261B
:101FA800000E0B22820E0A24196EFF0E0B201A6EE9
:101FB800F3EF0FF0D890153616361736183612AEDE
:101FC800E8EF0FF0EAEF0FF0EBEF0FF01580D89085
:101FD8000F361036113612361906D8A01A0617AE63
:101FE800F8EF0FF0FAEF0FF0DEEF0FF0000E136EC0
:101FF80012AE01EF10F003EF10F027EF10F0FF0E14
:102008000F140A6EFF0E10140B6EFF0E11140C6ED7
:102018007F0E12140D6E0A500B100C100D10D8B450
:1020280018EF10F01AEF10F01EEF10F0010E136EFB
:1020380027EF10F015A023EF10F025EF10F027EF91
:1020480010F01AEF10F01350D8B42DEF10F02FEF56
:1020580010F053EF10F0010E1526000E162217226D
:10206800182218A03AEF10F03CEF10F053EF10F0E0
:1020780015C00AF016C00BF017C00CF018C00DF010
:102088000D340D320C320B320A320AC015F00BC077
:1020980016F00CC017F00DC018F0194A1A2A1ABE0B
:1020A8005EEF10F01A5008E11928D8A05EEF10F082
:1020B80060EF10F06AEF10F0000E156E000E166E4D
:1020C800800E176E7F0E186E98EF10F01ABE77EF1D
:1020D80010F01A5006E11904D8B075EF10F077EF38
:1020E80010F083EF10F0000E156E000E166E000E45
:1020F800176E000E186E000E0E6E98EF10F019C0D5
:1021080014F0FF0E1516FF0E16167F0E1716000E8A
:10211800181614A092EF10F094EF10F095EF10F04D
:10212800178ED8901430186E0E50181215C002F081
:1021380016C003F017C004F018C005F012001E50B6
:10214800800B2B6E1E501E24326E1DAEAEEF10F0AB
:10215800B0EF10F0B1EF10F032803250D8B4B7EFD2
:1021680010F0B9EF10F0CEEF10F03228D8A4BFEF7E
:1021780010F0C1EF10F0C9EF10F0000E1B6E000E4A
:102188001C6E000E1D6E000E1E6E1D8E000E1E6E45
:10219800D6EF10F0000E1B6E000E1C6E000E1D6EAA
:1021A800000E1E6E2250800B2B1A22502224336EF2
:1021B80021AEE1EF10F0E3EF10F0E4EF10F0338020
:1021C8003350D8B4EAEF10F0ECEF10F001EF11F053
:1021D8003328D8A4F2EF10F0F4EF10F0FCEF10F071
:1021E800000E1F6E000E206E000E216E000E226E75
:1021F800218E000E226E09EF11F0000E1F6E000EE8
:10220800206E000E216E000E226E1F50201021102D
:102218002210D8A412EF11F014EF11F02CEF11F0E6
:10222800000E1B6E000E1C6E000E1D6E000E1E6E44
:10223800800E1D127F0E1E122B501E121BC01BF08B
:102248001CC01CF01DC01DF01EC01EF06FEF12F068
:102258003250D8A432EF11F034EF11F03EEF11F004
:10226800000E1B6E000E1C6E000E1D6E000E1E6E04
:102278006FEF12F0335032C023F0246A235E000E51
:10228800245A7F0E23242C6E000E24202D6E1BC092
:1022980027F01CC028F01DC029F01EC02AF0000E2F
:1022A8001B6E000E1C6E000E1D6E000E1E6E000EC4
:1022B8002E6E000E2F6E000E306E000E316E000E68
:1022C800336E9FEF11F03350D8B46DEF11F06FEF0C
:1022D80011F086EF11F0D8902736283629362A369D
:1022E800D8901B361C361D361E3631AE7EEF11F0E7
:1022F80080EF11F081EF11F01B80D8902E362F3629
:10230800303631361F50275C205028582150295824
:1023180022502A58D8A093EF11F095EF11F09EEFB4
:1023280011F0318C1F50275E2050285A2150295A0D
:1023380022502A5A332A190E3364A5EF11F0A7EF59
:1023480011F067EF11F02750281029102A10D8B47F
:10235800B0EF11F0B2EF11F0CAEF11F02E80CAEF12
:1023680011F0D8901B361C361D361E3631AEBFEF25
:1023780011F0C1EF11F0C2EF11F01B80D8902E368A
:102388002F36303631362C06D8A02D061DAECFEFAD
:1023980011F0D1EF11F0B5EF11F0000E336E31AE40
:1023A800D8EF11F0DAEF11F0FEEF11F0FF0E2E1456
:1023B800236EFF0E2F14246EFF0E3014256E7F0E31
:1023C8003114266E2350241025102610D8B4EFEFB0
:1023D80011F0F1EF11F0F5EF11F0010E336EFEEF91
:1023E80011F01BA0FAEF11F0FCEF11F0FEEF11F065
:1023F800F1EF11F03350D8B404EF12F006EF12F0F9
:102408002AEF12F0010E1B26000E1C221D221E228E
:102418001EA011EF12F013EF12F02AEF12F01BC0FA
:1024280023F01CC024F01DC025F01EC026F0263461
:10243800263225322432233223C01BF024C01CF05C
:1024480025C01DF026C01EF02C4A2D2A2DBE35EFC2
:1024580012F02D5008E12C28D8A035EF12F037EFF4
:1024680012F042EF12F0000E2D6E2C68000E1B6E5B
:10247800000E1C6E000E1D6E000E1E6E2DBE4FEF60
:1024880012F02D5006E12C04D8B04DEF12F04FEFAA
:1024980012F05DEF12F0000E2D6E000E2C6E000E85
:1024A8001B6E000E1C6E000E1D6E000E1E6E000EC2
:1024B8002B6E2CC032F032A064EF12F066EF12F0EF
:1024C80069EF12F01D8E6AEF12F01D9ED89032301F
:1024D8001E6E20EF11F012000A6E0A50D8B477EF82
:1024E80012F079EF12F09BEF12F005BE80EF12F0B8
:1024F8007EEF12F09BEF12F002C006F003C007F067
:1025080004C008F005C009F0061E071E081E091EB3
:10251800062A000E07220822092206C00CF007C06E
:102528000DF008C00EF009C00FF0A3EF12F002C0C2
:102538000CF003C00DF004C00EF005C00FF00250FF
:10254800031004100510D8A4ACEF12F0AEEF12F08F
:10255800B8EF12F0000E026E000E036E000E046E4D
:10256800000E056E49EF13F0960E0B6EC2EF12F0D7
:102578000B2AD8900F320E320D320C32000E0C148A
:10258800066E000E0D14076E000E0E14086EFE0E79
:102598000F14096E0650071008100910D8A4D7EFB9
:1025A80012F0D9EF12F0BCEF12F0E7EF12F00B2A9D
:1025B800010E0C26000E0D220E220F22D8900F328B
:1025C8000E320D320C32000E0C14066E000E0D1475
:1025D800076E000E0E14086EFF0E0F14096E0650DB
:1025E800071008100910D8A4FCEF12F0FEEF12F043
:1025F800DBEF12F006EF13F00B06D8900C360D3611
:102608000E360F360EBE0BEF13F00DEF13F015EF6D
:1026180013F0020E0B6013EF13F015EF13F000EF39
:1026280013F00BB01AEF13F01CEF13F01DEF13F0BB
:102638000E9ED8900B320BC006F0076A086A096A2A
:1026480006C009F0086A076A066A06500C120750A5
:102658000D1208500E1209500F120A50D8B437EF55
:1026680013F039EF13F041EF13F005BE40EF13F00C
:102678003EEF13F041EF13F00F8E0CC002F00DC0C7
:1026880003F00EC004F00FC005F0120010C002F0F5
:1026980011C003F012C004F013C005F0DEEC14F012
:1026A80002500310D8A45BEF13F05DEF13F067EF4F
:1026B80013F014C010F015C011F016C012F017C0B6
:1026C80013F0D8EF13F014C002F015C003F016C0D1
:1026D80004F017C005F0DEEC14F002500310D8A483
:1026E80078EF13F07AEF13F084EF13F010C010F0C6
:1026F80011C011F012C012F013C013F0D8EF13F08C
:1027080010C002F011C003F012C004F013C005F0AD
:102718004FEC17F002C018F003C019F014C002F013
:1027280015C003F016C004F017C005F04FEC17F001
:102738000250181809E103501918D8B4A6EF13F07D
:10274800A8EF13F0BDEF13F010C002F011C003F0B2
:1027580012C004F013C005F04FEC17F0025003103C
:10276800D8A4B9EF13F0BBEF13F07AEF13F05DEFD5
:1027780013F010C002F011C003F012C004F013C02F
:1027880005F014C006F015C007F016C008F017C011
:1027980009F05CEC14F0D8A0D4EF13F0D6EF13F0E6
:1027A8007AEF13F05DEF13F01200463447344D6EA4
:1027B8004D50D8A4E2EF13F0E4EF13F0EEEF13F06E
:1027C800000E446E000E456E000E466E000E476EFB
:1027D8005BEF14F044C048F045C049F046C04AF0E9
:1027E80047C04BF0200EFEEF13F0D8904B324A3220
:1027F80049324832E82EF9EF13F048504C6E468EB5
:10280800FF0E4416FF0E4516FF0E4616000E47161D
:10281800960E4D5E4DBE15EF14F013EF14F02BEF2E
:1028280014F04D50800A970FD8B01DEF14F01FEF29
:1028380014F021EF14F0E4EF13F0D8904732463249
:10284800453244324D3E21EF14F043EF14F01F0E91
:102858004D6431EF14F033EF14F03BEF14F0E4EF74
:1028680013F0D89044364536463647364D064D5017
:10287800D8A441EF14F043EF14F035EF14F04C50A6
:10288800D8B449EF14F04BEF14F053EF14F0471E8F
:10289800461E451E446C000E45224622472244C06F
:1028A80044F045C045F046C046F047C047F0120026
:1028B800000E02140A6E000E03140B6E800E041430
:1028C8000C6E7F0E05140D6E0A500B100C100D10B7
:1028D800D8A471EF14F073EF14F07BEF14F0000E2E
:1028E800026E000E036E000E046E000E056E000EE2
:1028F80006140A6E000E07140B6E800E08140C6E78
:102908007F0E09140D6E0A500B100C100D10D8A470
:1029180090EF14F092EF14F09AEF14F0000E066E98
:10292800000E076E000E086E000E096E05AE9FEFD2
:1029380014F0A1EF14F0AAEF14F0026C031ED8B043
:10294800032A041ED8B0042A800E055609AEAFEF3C
:1029580014F0B1EF14F0BAEF14F0066C071ED8B0FB
:10296800072A081ED8B0082A800E0956000E021A37
:10297800000E031A000E041A800E051A000E061A1D
:10298800000E071A000E081A800E091A0650025C7B
:10299800075003580850045809500558D8B0D7EFC5
:1029A80014F0D9EF14F0DCEF14F0D890DDEF14F048
:1029B800D88012009EC00CF09FC00DF0A0C00EF091
:1029C800A1C00FF002C00CF003C00DF004C00EF05F
:1029D80005C00FF00CC006F00DC007F00EC008F0DF
:1029E8000FC009F0180EFEEF14F0D8900932083223
:1029F80007320632E82EF9EF14F006500A6E0B6A19
:102A08000A500B10D8A40BEF15F00DEF15F02DEFB1
:102A180015F0D8900C34066E0D34076E0E34086E1F
:102A28000F34096E0650071008100910D8A41FEFBC
:102A380015F021EF15F027EF15F0000E036E020ECA
:102A4800026E5CEF15F0000E036E030E026E5CEF73
:102A580015F00A280B10D8A434EF15F036EF15F04E
:102A680058EF15F00CC006F00DC007F00EC008F0C6
:102A78000FC009F0090ED890063607360836093611
:102A8800E82E3FEF15F00650071008100910D8B4CB
:102A980050EF15F053EF15F0010E54EF15F0000E3E
:102AA800026E036A5CEF15F0000E036E040E026EF0
:102AB8001200000E02140A6E000E03140B6E800E34
:102AC80004140C6E7F0E05140D6E0A500B100C10BA
:102AD8000D10D8A472EF15F074EF15F07CEF15F017
:102AE800000E026E000E036E000E046E000E056EE0
:102AF800000E06140A6E000E07140B6E800E0814E2
:102B08000C6E7F0E09140D6E0A500B100C100D1070
:102B1800D8A491EF15F093EF15F09BEF15F0000E88
:102B2800066E000E076E000E086E000E096E065047
:102B380002180FE1075003180CE10850041809E1C6
:102B480009500518D8B4ABEF15F0ADEF15F0B0EF9C
:102B580015F0D890B1EF15F0D8801200000E086E6D
:102B6800000E076EE9EF15F0ACACBDEF15F0BFEF46
:102B780015F0D8EF15F00750020D0250F324D96E66
:102B8800DA6ADECF05F0DDCF06F006C005F0066A8A
:102B980005BE06680530D8B0D4EF15F0D7EF15F0AC
:102BA800AC80D8EF15F0AC900750020D0250F3241A
:102BB800D96EDA6ADF50AD6E9EA8E5EF15F0E7EF43
:102BC80015F0E0EF15F0074A082A0350075C085093
:102BD800800A056E0450800A0558D8A0F6EF15F053
:102BE800F8EF15F0B8EF15F0ACA2FDEF15F0FFEF18
:102BF80015F0F8EF15F01200000E956E000E8C6EB1
:102C0800F0EC16F0010E056E010EBDEC16F004ECAA
:102C180018F0010E0A6E9AEC17F0800E546E250E0D
:102C2800556E000E566E000E576E010E04EC04F041
:102C3800020E5D6E040E5C6EBA0EE82EFED75C2E98
:102C4800FCD75D2EFAD700D0A60E026E000E046ED9
:102C5800050E036EB2EC15F086EC16F0025000017A
:102C6800996F995110EC18F0150E5D6E4B0E5C6E55
:102C7800BE0EE82EFED75C2EFCD75D2EFAD700D00C
:102C880028EF16F013EF00F0056E05500F0B036EDA
:102C98000550F00B046E8C8404380F0B21EC17F0F0
:102CA8008C86820E076E330E066E00000606D8A0CC
:102CB800070607BE68EF16F0075008E10604D8A01B
:102CC80068EF16F06AEF16F059EF16F08C9603507D
:102CD80021EC17F08C86820E096E330E086E000008
:102CE8000806D8A0090609BE82EF16F0095008E1C7
:102CF8000804D8A082EF16F084EF16F073EF16F0F0
:102D08008C9612009EAA8BEF16F08DEF16F086EFC8
:102D180016F0ABA492EF16F094EF16F09AEF16F0B7
:102D2800AE50010E036E0268BCEF16F0ABA29FEF27
:102D380016F0A1EF16F0A6EF16F0AE50C596C586B0
:102D480095EF16F0ABB0ABEF16F0ADEF16F0B2EFB3
:102D580016F0AECF04F0056AB7EF16F0000EAE100D
:102D6800046E010E056E04C006F006C002F0036A88
:102D78001200066E0604D8A4C4EF16F0C6EF16F0CB
:102D8800D7EF16F005507F0F096E09380F0B076E45
:102D980009500F0B086E0750F4EC17F00850F4ECCC
:102DA80017F0EFEF16F0020E0618D8A4DEEF16F0B3
:102DB800E0EF16F0EFEF16F00550BF0F096E093877
:102DC8000F0B076E09500F0B086E0750F4EC17F045
:102DD8000850F4EC17F01200000E21EC17F0030E67
:102DE800F4EC17F00D0E056EFC0EE82EFED7052E3E
:102DF800FCD7030EF4EC17F01D0E056E910EE82EAD
:102E0800FED7052EFCD70000030EF4EC17F0020ED7
:102E1800F4EC17F0020EF4EC17F0080EF4EC17F0CF
:102E2800000EF4EC17F00C0EF4EC17F0000EF4ECB6
:102E380017F0060EF4EC17F01200026E02A027EF4E
:102E480017F029EF17F02CEF17F08C882DEF17F0FB
:102E58008C9802A232EF17F034EF17F037EF17F023
:102E68008C8A38EF17F08C9A02A43DEF17F03FEFE9
:102E780017F042EF17F08C8C43EF17F08C9C02A6EA
:102E880048EF17F04AEF17F04DEF17F08C8E4EEF22
:102E980017F08C9E12009AC00AF09BC00BF09CC0E1
:102EA8000CF09DC00DF002C00AF003C00BF004C086
:102EB8000CF005C00DF00AC006F00BC007F00CC0FE
:102EC80008F00DC009F0200E6FEF17F0D890093206
:102ED800083207320632E82E6AEF17F006C002F011
:102EE80007C003F01200000E481A000E491A000E1F
:102EF8004A1A800E4B1A44C034F045C035F046C01B
:102F080036F047C037F048C038F049C039F04AC0F9
:102F18003AF04BC03BF02EEC0CF034C044F035C016
:102F280045F036C046F037C047F01200000E0D6E6F
:102F3800000E0C6EABEF17F00A500C240B6E0BC092
:102F4800F6FF0800F55048EC16F00C4A0D2A0A5016
:102F58000C240B6E0BC0F6FF0800F5500009D8A42E
:102F6800B8EF17F0BAEF17F0A0EF17F01200160E2F
:102F7800F66E300EF76E000EF86E00EEA6F010EE4C
:102F88000AF00900F5CFEEFFE550E150FAE100EE56
:102F98009AF00C0EEE6AE806FDE15E905E92000E75
:102FA800F86E080EF76E000100EF16F0A2C050F0A0
:102FB800A3C051F0A4C052F0A5C053F04CC050F0CB
:102FC8004DC051F04EC052F04FC053F0539E50C008
:102FD8004CF051C04DF052C04EF053C04FF01200AB
:102FE800046E8C94045021EC17F08C860B0E036E43
:102FF800620EE82EFED7032EFCD700D08C96120066
:10300800000EF4EC17F0010EF4EC17F0120061005A
:1030180062006300640000000A6E0A5048EC16F073
:02302800120094
:020000040030CA
:020002001F1EBF
:00000001FF
