:04000000A5EF05F073
:070800000054583A200000EB
:10080800000E036E81B20BEF04F00DEF04F006EF5B
:1008180004F0D00E00D0E82EFDD7000E046E030EB3
:10082800016EB30EE82EFED7012EFCD7000081A280
:1008380020EF04F022EF04F030EF04F004C001F0E0
:10084800010E026E012A2BEF04F0D8900236012E19
:1008580029EF04F002500312042A070E046437EF4C
:1008680004F039EF04F013EF04F0030E016EB30E39
:10087800E82EFED7012EFCD7000003501200086EA8
:1008880008500F0B026E0850F00B036E8C8403386F
:100898000F0B1FEC05F08C86820E056E330E046E6E
:1008A80000000406D8A0050605BE63EF04F0055055
:1008B80008E10404D8A063EF04F065EF04F054EFF6
:1008C80004F08C9602501FEC05F08C86820E076EA1
:1008D800330E066E00000606D8A0070607BE7DEF99
:1008E80004F0075008E10604D8A07DEF04F07FEF7C
:1008F80004F06EEF04F08C961200036E8A90030EDB
:10090800016EB30EE82EFED7012EFCD70000000EB4
:10091800046E04C001F003C002F0012A96EF04F04F
:10092800D8900232012E94EF04F0010E02168A507C
:100938000218FE0B02188A6E030E016EB30EE82E23
:10094800FED7012EFCD70000042A070E0464AFEF7F
:1009580004F0B1EF04F08DEF04F08A80030E016E0D
:10096800B30EE82EFED7012EFCD700001200056E4C
:100978000504D8A4C2EF04F0C4EF04F0D5EF04F0E6
:1009880004507F0F086E08380F0B066E08500F0BC7
:10099800076E065095EC05F0075095EC05F0EDEF65
:1009A80004F0020E0518D8A4DCEF04F0DEEF04F022
:1009B800EDEF04F00450BF0F086E08380F0B066EF9
:1009C80008500F0B076E065095EC05F0075095EC94
:1009D80005F01200000E1FEC05F0030E95EC05F073
:1009E8000D0E046EFC0EE82EFED7042EFCD7030E67
:1009F80095EC05F01D0E046E910EE82EFED7042E20
:100A0800FCD70000030E95EC05F0020E95EC05F0FE
:100A1800020E95EC05F0080E95EC05F0000E95EC2D
:100A280005F00C0E95EC05F0000E95EC05F0060EA1
:100A380095EC05F01200016E01A025EF05F027EFF7
:100A480005F02AEF05F08C882BEF05F08C9801A2B1
:100A580030EF05F032EF05F035EF05F08C8A36EF10
:100A680005F08C9A01A43BEF05F03DEF05F040EF4F
:100A780005F08C8C41EF05F08C9C01A646EF05F043
:100A880048EF05F04BEF05F08C8E4CEF05F08C9E8F
:100A98001200000E956E000E8C6EEEEC04F0010E46
:100AA800046E010EBBEC04F0ACEC05F0010E096E0F
:100AB80074EC05F0B8EC05F0610E81EC04F004EC80
:100AC80004F00E6E0E50B3EC05F0030E0D6E980E8A
:100AD800E82EFED70D2EFCD760EF05F000EF00F0F2
:100AE800000E0C6E000E0B6E85EF05F009500B24FE
:100AF8000A6E0AC0F6FF0800F55043EC04F00B4AF2
:100B08000C2A09500B240A6E0AC0F6FF0800F5509B
:100B18000009D8A492EF05F094EF05F07AEF05F0FC
:100B28001200036E8C9403501FEC05F08C860B0E9C
:100B3800026E620EE82EFED7022EFCD700D08C96ED
:100B48001200000EF86E080EF76E00014DEF05F06A
:100B5800000E95EC05F0010E95EC05F01200096EFB
:100B6800095043EC04F0120093908A80938212009B
:020000040030CA
:020002001F1EBF
:00000001FF
